{"contracts/LockableToken.sol":{"LockableToken":{"abi":[{"inputs":[{"internalType":"string","name":"name","type":"string"},{"internalType":"string","name":"symbol","type":"string"},{"internalType":"uint256","name":"initialSupply","type":"uint256"}],"stateMutability":"nonpayable","type":"constructor"},{"inputs":[{"internalType":"address","name":"spender","type":"address"},{"internalType":"uint256","name":"allowance","type":"uint256"},{"internalType":"uint256","name":"needed","type":"uint256"}],"name":"ERC20InsufficientAllowance","type":"error"},{"inputs":[{"internalType":"address","name":"sender","type":"address"},{"internalType":"uint256","name":"balance","type":"uint256"},{"internalType":"uint256","name":"needed","type":"uint256"}],"name":"ERC20InsufficientBalance","type":"error"},{"inputs":[{"internalType":"address","name":"approver","type":"address"}],"name":"ERC20InvalidApprover","type":"error"},{"inputs":[{"internalType":"address","name":"receiver","type":"address"}],"name":"ERC20InvalidReceiver","type":"error"},{"inputs":[{"internalType":"address","name":"sender","type":"address"}],"name":"ERC20InvalidSender","type":"error"},{"inputs":[{"internalType":"address","name":"spender","type":"address"}],"name":"ERC20InvalidSpender","type":"error"},{"inputs":[{"internalType":"address","name":"owner","type":"address"}],"name":"OwnableInvalidOwner","type":"error"},{"inputs":[{"internalType":"address","name":"account","type":"address"}],"name":"OwnableUnauthorizedAccount","type":"error"},{"inputs":[],"name":"ReentrancyGuardReentrantCall","type":"error"},{"anonymous":false,"inputs":[{"indexed":true,"internalType":"address","name":"owner","type":"address"},{"indexed":true,"internalType":"address","name":"spender","type":"address"},{"indexed":false,"internalType":"uint256","name":"value","type":"uint256"}],"name":"Approval","type":"event"},{"anonymous":false,"inputs":[{"indexed":true,"internalType":"address","name":"previousOwner","type":"address"},{"indexed":true,"internalType":"address","name":"newOwner","type":"address"}],"name":"OwnershipTransferred","type":"event"},{"anonymous":false,"inputs":[{"indexed":true,"internalType":"address","name":"user","type":"address"},{"indexed":false,"internalType":"uint256","name":"amount","type":"uint256"},{"indexed":false,"internalType":"uint256","name":"unlockTime","type":"uint256"},{"indexed":false,"internalType":"uint256","name":"lockIndex","type":"uint256"}],"name":"TokensLocked","type":"event"},{"anonymous":false,"inputs":[{"indexed":true,"internalType":"address","name":"user","type":"address"},{"indexed":false,"internalType":"uint256","name":"amount","type":"uint256"},{"indexed":false,"internalType":"uint256","name":"lockIndex","type":"uint256"}],"name":"TokensUnlocked","type":"event"},{"anonymous":false,"inputs":[{"indexed":true,"internalType":"address","name":"from","type":"address"},{"indexed":true,"internalType":"address","name":"to","type":"address"},{"indexed":false,"internalType":"uint256","name":"value","type":"uint256"}],"name":"Transfer","type":"event"},{"inputs":[{"internalType":"address","name":"owner","type":"address"},{"internalType":"address","name":"spender","type":"address"}],"name":"allowance","outputs":[{"internalType":"uint256","name":"","type":"uint256"}],"stateMutability":"view","type":"function"},{"inputs":[{"internalType":"address","name":"spender","type":"address"},{"internalType":"uint256","name":"value","type":"uint256"}],"name":"approve","outputs":[{"internalType":"bool","name":"","type":"bool"}],"stateMutability":"nonpayable","type":"function"},{"inputs":[{"internalType":"address","name":"account","type":"address"}],"name":"balanceOf","outputs":[{"internalType":"uint256","name":"","type":"uint256"}],"stateMutability":"view","type":"function"},{"inputs":[{"internalType":"address","name":"user","type":"address"},{"internalType":"uint256","name":"lockIndex","type":"uint256"}],"name":"canUnlock","outputs":[{"internalType":"bool","name":"","type":"bool"}],"stateMutability":"view","type":"function"},{"inputs":[],"name":"decimals","outputs":[{"internalType":"uint8","name":"","type":"uint8"}],"stateMutability":"view","type":"function"},{"inputs":[{"internalType":"address","name":"user","type":"address"}],"name":"getActiveLocks","outputs":[{"internalType":"uint256[]","name":"amounts","type":"uint256[]"},{"internalType":"uint256[]","name":"unlockTimes","type":"uint256[]"},{"internalType":"uint256[]","name":"indexes","type":"uint256[]"}],"stateMutability":"view","type":"function"},{"inputs":[{"internalType":"address","name":"user","type":"address"}],"name":"getAvailableBalance","outputs":[{"internalType":"uint256","name":"","type":"uint256"}],"stateMutability":"view","type":"function"},{"inputs":[{"internalType":"address","name":"user","type":"address"}],"name":"getLockCount","outputs":[{"internalType":"uint256","name":"","type":"uint256"}],"stateMutability":"view","type":"function"},{"inputs":[{"internalType":"address","name":"user","type":"address"},{"internalType":"uint256","name":"lockIndex","type":"uint256"}],"name":"getLockInfo","outputs":[{"internalType":"uint256","name":"amount","type":"uint256"},{"internalType":"uint256","name":"unlockTime","type":"uint256"},{"internalType":"bool","name":"exists","type":"bool"}],"stateMutability":"view","type":"function"},{"inputs":[{"internalType":"address","name":"user","type":"address"}],"name":"getTotalLockedTokens","outputs":[{"internalType":"uint256","name":"","type":"uint256"}],"stateMutability":"view","type":"function"},{"inputs":[{"internalType":"uint256","name":"amount","type":"uint256"},{"internalType":"uint256","name":"lockDuration","type":"uint256"}],"name":"lockTokens","outputs":[],"stateMutability":"nonpayable","type":"function"},{"inputs":[{"internalType":"address","name":"to","type":"address"},{"internalType":"uint256","name":"amount","type":"uint256"}],"name":"mint","outputs":[],"stateMutability":"nonpayable","type":"function"},{"inputs":[],"name":"name","outputs":[{"internalType":"string","name":"","type":"string"}],"stateMutability":"view","type":"function"},{"inputs":[],"name":"owner","outputs":[{"internalType":"address","name":"","type":"address"}],"stateMutability":"view","type":"function"},{"inputs":[],"name":"renounceOwnership","outputs":[],"stateMutability":"nonpayable","type":"function"},{"inputs":[],"name":"symbol","outputs":[{"internalType":"string","name":"","type":"string"}],"stateMutability":"view","type":"function"},{"inputs":[{"internalType":"address","name":"","type":"address"},{"internalType":"uint256","name":"","type":"uint256"}],"name":"tokenLocks","outputs":[{"internalType":"uint256","name":"amount","type":"uint256"},{"internalType":"uint256","name":"unlockTime","type":"uint256"},{"internalType":"bool","name":"exists","type":"bool"}],"stateMutability":"view","type":"function"},{"inputs":[],"name":"totalSupply","outputs":[{"internalType":"uint256","name":"","type":"uint256"}],"stateMutability":"view","type":"function"},{"inputs":[{"internalType":"address","name":"to","type":"address"},{"internalType":"uint256","name":"amount","type":"uint256"}],"name":"transfer","outputs":[{"internalType":"bool","name":"","type":"bool"}],"stateMutability":"nonpayable","type":"function"},{"inputs":[{"internalType":"address","name":"from","type":"address"},{"internalType":"address","name":"to","type":"address"},{"internalType":"uint256","name":"amount","type":"uint256"}],"name":"transferFrom","outputs":[{"internalType":"bool","name":"","type":"bool"}],"stateMutability":"nonpayable","type":"function"},{"inputs":[{"internalType":"address","name":"newOwner","type":"address"}],"name":"transferOwnership","outputs":[],"stateMutability":"nonpayable","type":"function"},{"inputs":[{"internalType":"uint256","name":"lockIndex","type":"uint256"}],"name":"unlockTokens","outputs":[],"stateMutability":"nonpayable","type":"function"}],"evm":{"bytecode":{"linkReferences":{},"object":"60806040523480156200001157600080fd5b5060405162001cc938038062001cc983398101604081905262000034916200034e565b338383600362000045838262000450565b50600462000054828262000450565b5050506001600160a01b0381166200008757604051631e4fbdf760e01b8152600060048201526024015b60405180910390fd5b6200009281620000c6565b506001600655620000bd33620000ab6012600a62000631565b620000b7908462000649565b62000118565b50505062000679565b600580546001600160a01b038381166001600160a01b0319831681179093556040519116919082907f8be0079c531659141344cd1fd0a4f28419497f9722a3daafe3b4186f6b6457e090600090a35050565b6001600160a01b038216620001445760405163ec442f0560e01b8152600060048201526024016200007e565b620001526000838362000156565b5050565b6001600160a01b0383166200018557806002600082825462000179919062000663565b90915550620001f99050565b6001600160a01b03831660009081526020819052604090205481811015620001da5760405163391434e360e21b81526001600160a01b038516600482015260248101829052604481018390526064016200007e565b6001600160a01b03841660009081526020819052604090209082900390555b6001600160a01b038216620002175760028054829003905562000236565b6001600160a01b03821660009081526020819052604090208054820190555b816001600160a01b0316836001600160a01b03167fddf252ad1be2c89b69c2b068fc378daa952ba7f163c4a11628f55a4df523b3ef836040516200027c91815260200190565b60405180910390a3505050565b634e487b7160e01b600052604160045260246000fd5b600082601f830112620002b157600080fd5b81516001600160401b0380821115620002ce57620002ce62000289565b604051601f8301601f19908116603f01168101908282118183101715620002f957620002f962000289565b816040528381526020925086838588010111156200031657600080fd5b600091505b838210156200033a57858201830151818301840152908201906200031b565b600093810190920192909252949350505050565b6000806000606084860312156200036457600080fd5b83516001600160401b03808211156200037c57600080fd5b6200038a878388016200029f565b94506020860151915080821115620003a157600080fd5b50620003b0868287016200029f565b925050604084015190509250925092565b600181811c90821680620003d657607f821691505b602082108103620003f757634e487b7160e01b600052602260045260246000fd5b50919050565b601f8211156200044b57600081815260208120601f850160051c81016020861015620004265750805b601f850160051c820191505b81811015620004475782815560010162000432565b5050505b505050565b81516001600160401b038111156200046c576200046c62000289565b62000484816200047d8454620003c1565b84620003fd565b602080601f831160018114620004bc5760008415620004a35750858301515b600019600386901b1c1916600185901b17855562000447565b600085815260208120601f198616915b82811015620004ed57888601518255948401946001909101908401620004cc565b50858210156200050c5787850151600019600388901b60f8161c191681555b5050505050600190811b01905550565b634e487b7160e01b600052601160045260246000fd5b600181815b80851115620005735781600019048211156200055757620005576200051c565b808516156200056557918102915b93841c939080029062000537565b509250929050565b6000826200058c575060016200062b565b816200059b575060006200062b565b8160018114620005b45760028114620005bf57620005df565b60019150506200062b565b60ff841115620005d357620005d36200051c565b50506001821b6200062b565b5060208310610133831016604e8410600b841016171562000604575081810a6200062b565b62000610838362000532565b80600019048211156200062757620006276200051c565b0290505b92915050565b60006200064260ff8416836200057b565b9392505050565b80820281158282048414176200062b576200062b6200051c565b808201808211156200062b576200062b6200051c565b61164080620006896000396000f3fe608060405234801561001057600080fd5b50600436106101425760003560e01c806370a08231116100b857806395d89b411161007c57806395d89b41146102e4578063a9059cbb146102ec578063ccebfa3f146102ff578063dd62ed3e14610312578063e75e2c581461034b578063f2fde38b1461035e57600080fd5b806370a0823114610272578063715018a61461029b5780637c405325146102a357806389158d8e146102b65780638da5cb5b146102c957600080fd5b806323c1ee431161010a57806323c1ee43146101dd578063313ce5671461020657806332c6534b1461021557806340c10f191461022857806361496d591461023d5780636c24a76f1461025f57600080fd5b806306fdde0314610147578063095ea7b31461016557806315b9672c1461018857806318160ddd146101b857806323b872dd146101ca575b600080fd5b61014f610371565b60405161015c919061130f565b60405180910390f35b610178610173366004611379565b610403565b604051901515815260200161015c565b61019b610196366004611379565b61041d565b60408051938452602084019290925215159082015260600161015c565b6002545b60405190815260200161015c565b6101786101d83660046113a3565b6104da565b6101bc6101eb3660046113df565b6001600160a01b031660009081526007602052604090205490565b6040516012815260200161015c565b610178610223366004611379565b61051c565b61023b610236366004611379565b6105ac565b005b61025061024b3660046113df565b6105c2565b60405161015c9392919061143c565b6101bc61026d3660046113df565b610907565b6101bc6102803660046113df565b6001600160a01b031660009081526020819052604090205490565b61023b6109ad565b61023b6102b136600461147f565b6109c1565b61023b6102c4366004611498565b610b99565b6005546040516001600160a01b03909116815260200161015c565b61014f610d7d565b6101786102fa366004611379565b610d8c565b61019b61030d366004611379565b610dc4565b6101bc6103203660046114ba565b6001600160a01b03918216600090815260016020908152604080832093909416825291909152205490565b6101bc6103593660046113df565b610e09565b61023b61036c3660046113df565b610ed9565b606060038054610380906114ed565b80601f01602080910402602001604051908101604052809291908181526020018280546103ac906114ed565b80156103f95780601f106103ce576101008083540402835291602001916103f9565b820191906000526020600020905b8154815290600101906020018083116103dc57829003601f168201915b5050505050905090565b600033610411818585610f14565b60019150505b92915050565b6001600160a01b0382166000908152600760205260408120548190819084106104825760405162461bcd60e51b8152602060048201526012602482015271092dcecc2d8d2c840d8dec6d640d2dcc8caf60731b60448201526064015b60405180910390fd5b6001600160a01b03851660009081526007602052604081208054869081106104ac576104ac611527565b6000918252602090912060039091020180546001820154600290920154909891975060ff1695509350505050565b6000806104e685610907565b9050808311156105085760405162461bcd60e51b81526004016104799061153d565b610513858585610f26565b95945050505050565b6001600160a01b038216600090815260076020526040812054821061054357506000610417565b6001600160a01b038316600090815260076020526040812080548490811061056d5761056d611527565b60009182526020909120600390910201600281015490915060ff1680156105945750805415155b80156105a4575080600101544210155b949350505050565b6105b4610f4a565b6105be8282610f77565b5050565b6001600160a01b03811660009081526007602052604081205460609182918291805b82811015610697576001600160a01b038716600090815260076020526040902080548290811061061657610616611527565b600091825260209091206002600390920201015460ff16801561067257506001600160a01b038716600090815260076020526040812080548390811061065e5761065e611527565b906000526020600020906003020160000154115b1561068557816106818161159c565b9250505b8061068f8161159c565b9150506105e4565b508067ffffffffffffffff8111156106b1576106b16115b5565b6040519080825280602002602001820160405280156106da578160200160208202803683370190505b5094508067ffffffffffffffff8111156106f6576106f66115b5565b60405190808252806020026020018201604052801561071f578160200160208202803683370190505b5093508067ffffffffffffffff81111561073b5761073b6115b5565b604051908082528060200260200182016040528015610764578160200160208202803683370190505b5092506000805b838110156108fc576001600160a01b038816600090815260076020526040902080548290811061079d5761079d611527565b600091825260209091206002600390920201015460ff1680156107f957506001600160a01b03881660009081526007602052604081208054839081106107e5576107e5611527565b906000526020600020906003020160000154115b156108ea576001600160a01b038816600090815260076020526040902080548290811061082857610828611527565b90600052602060002090600302016000015487838151811061084c5761084c611527565b60200260200101818152505060076000896001600160a01b03166001600160a01b03168152602001908152602001600020818154811061088e5761088e611527565b9060005260206000209060030201600101548683815181106108b2576108b2611527565b602002602001018181525050808583815181106108d1576108d1611527565b6020908102919091010152816108e68161159c565b9250505b806108f48161159c565b91505061076b565b505050509193909250565b6001600160a01b0381166000908152602081905260408120548190604051631cebc58b60e31b81526001600160a01b0385166004820152909150600090309063e75e2c5890602401602060405180830381865afa15801561096c573d6000803e3d6000fd5b505050506040513d601f19601f8201168201806040525081019061099091906115cb565b90508181106109a3575060009392505050565b6105a481836115e4565b6109b5610f4a565b6109bf6000610fad565b565b6109c9610fff565b336000908152600760205260409020548110610a1c5760405162461bcd60e51b8152602060048201526012602482015271092dcecc2d8d2c840d8dec6d640d2dcc8caf60731b6044820152606401610479565b336000908152600760205260408120805483908110610a3d57610a3d611527565b60009182526020909120600390910201600281015490915060ff16610a9a5760405162461bcd60e51b8152602060048201526013602482015272131bd8dac8191bd95cc81b9bdd08195e1a5cdd606a1b6044820152606401610479565b8060010154421015610aee5760405162461bcd60e51b815260206004820152601760248201527f546f6b656e7320617265207374696c6c206c6f636b65640000000000000000006044820152606401610479565b8054610b325760405162461bcd60e51b81526020600482015260136024820152724e6f20746f6b656e7320746f20756e6c6f636b60681b6044820152606401610479565b80546000825560028201805460ff19169055610b4f303383611029565b604080518281526020810185905233917f89882ad382a3742d4db24e4dabc5000c5852aed762904db28442e4e1630a1d07910160405180910390a25050610b966001600655565b50565b610ba1610fff565b60008211610bf15760405162461bcd60e51b815260206004820152601d60248201527f416d6f756e74206d7573742062652067726561746572207468616e20300000006044820152606401610479565b60008111610c4d5760405162461bcd60e51b8152602060048201526024808201527f4c6f636b206475726174696f6e206d75737420626520677265617465722074686044820152630616e20360e41b6064820152608401610479565b33600090815260208190526040902054821115610ca35760405162461bcd60e51b8152602060048201526014602482015273496e73756666696369656e742062616c616e636560601b6044820152606401610479565b6000610caf82426115f7565b9050610cbc333085611029565b60408051606081018252848152602080820184815260018385018181523360008181526007865296872080548085018255818952958820875160039097020195865593518584015590516002909401805460ff1916941515949094179093559382905254919290917f90e20a62e0f2a608d33bd96a4e15cb853006a15caf4455f373b7b55de520b68c9187918691610d53916115e4565b6040805193845260208401929092529082015260600160405180910390a250506105be6001600655565b606060048054610380906114ed565b600080610d9833610907565b905080831115610dba5760405162461bcd60e51b81526004016104799061153d565b6105a48484611088565b60076020528160005260406000208181548110610de057600080fd5b600091825260209091206003909102018054600182015460029092015490935090915060ff1683565b6001600160a01b0381166000908152600760205260408120548190815b81811015610ed0576001600160a01b0385166000908152600760205260409020805482908110610e5857610e58611527565b600091825260209091206002600390920201015460ff1615610ebe576001600160a01b0385166000908152600760205260409020805482908110610e9e57610e9e611527565b90600052602060002090600302016000015483610ebb91906115f7565b92505b80610ec88161159c565b915050610e26565b50909392505050565b610ee1610f4a565b6001600160a01b038116610f0b57604051631e4fbdf760e01b815260006004820152602401610479565b610b9681610fad565b610f218383836001611096565b505050565b600033610f3485828561116c565b610f3f858585611029565b506001949350505050565b6005546001600160a01b031633146109bf5760405163118cdaa760e01b8152336004820152602401610479565b6001600160a01b038216610fa15760405163ec442f0560e01b815260006004820152602401610479565b6105be600083836111e5565b600580546001600160a01b038381166001600160a01b0319831681179093556040519116919082907f8be0079c531659141344cd1fd0a4f28419497f9722a3daafe3b4186f6b6457e090600090a35050565b60026006540361102257604051633ee5aeb560e01b815260040160405180910390fd5b6002600655565b6001600160a01b03831661105357604051634b637e8f60e11b815260006004820152602401610479565b6001600160a01b03821661107d5760405163ec442f0560e01b815260006004820152602401610479565b610f218383836111e5565b600033610411818585611029565b6001600160a01b0384166110c05760405163e602df0560e01b815260006004820152602401610479565b6001600160a01b0383166110ea57604051634a1406b160e11b815260006004820152602401610479565b6001600160a01b038085166000908152600160209081526040808320938716835292905220829055801561116657826001600160a01b0316846001600160a01b03167f8c5be1e5ebec7d5bd14f71427d1e84f3dd0314c0f7b2291e5b200ac8c7c3b9258460405161115d91815260200190565b60405180910390a35b50505050565b6001600160a01b0383811660009081526001602090815260408083209386168352929052205460001981101561116657818110156111d657604051637dc7a0d960e11b81526001600160a01b03841660048201526024810182905260448101839052606401610479565b61116684848484036000611096565b6001600160a01b03831661121057806002600082825461120591906115f7565b909155506112829050565b6001600160a01b038316600090815260208190526040902054818110156112635760405163391434e360e21b81526001600160a01b03851660048201526024810182905260448101839052606401610479565b6001600160a01b03841660009081526020819052604090209082900390555b6001600160a01b03821661129e576002805482900390556112bd565b6001600160a01b03821660009081526020819052604090208054820190555b816001600160a01b0316836001600160a01b03167fddf252ad1be2c89b69c2b068fc378daa952ba7f163c4a11628f55a4df523b3ef8360405161130291815260200190565b60405180910390a3505050565b600060208083528351808285015260005b8181101561133c57858101830151858201604001528201611320565b506000604082860101526040601f19601f8301168501019250505092915050565b80356001600160a01b038116811461137457600080fd5b919050565b6000806040838503121561138c57600080fd5b6113958361135d565b946020939093013593505050565b6000806000606084860312156113b857600080fd5b6113c18461135d565b92506113cf6020850161135d565b9150604084013590509250925092565b6000602082840312156113f157600080fd5b6113fa8261135d565b9392505050565b600081518084526020808501945080840160005b8381101561143157815187529582019590820190600101611415565b509495945050505050565b60608152600061144f6060830186611401565b82810360208401526114618186611401565b905082810360408401526114758185611401565b9695505050505050565b60006020828403121561149157600080fd5b5035919050565b600080604083850312156114ab57600080fd5b50508035926020909101359150565b600080604083850312156114cd57600080fd5b6114d68361135d565b91506114e46020840161135d565b90509250929050565b600181811c9082168061150157607f821691505b60208210810361152157634e487b7160e01b600052602260045260246000fd5b50919050565b634e487b7160e01b600052603260045260246000fd5b60208082526029908201527f5472616e7366657220616d6f756e74206578636565647320617661696c61626c604082015268652062616c616e636560b81b606082015260800190565b634e487b7160e01b600052601160045260246000fd5b6000600182016115ae576115ae611586565b5060010190565b634e487b7160e01b600052604160045260246000fd5b6000602082840312156115dd57600080fd5b5051919050565b8181038181111561041757610417611586565b808201808211156104175761041761158656fea2646970667358221220621feabb645e382e781367cb152f7c1da6f7c697e6c3eb0ae58f26a8867f712564736f6c63430008140033","opcodes":"PUSH1 0x80 PUSH1 0x40 MSTORE CALLVALUE DUP1 ISZERO PUSH3 0x11 JUMPI PUSH1 0x0 DUP1 REVERT JUMPDEST POP PUSH1 0x40 MLOAD PUSH3 0x1CC9 CODESIZE SUB DUP1 PUSH3 0x1CC9 DUP4 CODECOPY DUP2 ADD PUSH1 0x40 DUP2 SWAP1 MSTORE PUSH3 0x34 SWAP2 PUSH3 0x34E JUMP JUMPDEST CALLER DUP4 DUP4 PUSH1 0x3 PUSH3 0x45 DUP4 DUP3 PUSH3 0x450 JUMP JUMPDEST POP PUSH1 0x4 PUSH3 0x54 DUP3 DUP3 PUSH3 0x450 JUMP JUMPDEST POP POP POP PUSH1 0x1 PUSH1 0x1 PUSH1 0xA0 SHL SUB DUP2 AND PUSH3 0x87 JUMPI PUSH1 0x40 MLOAD PUSH4 0x1E4FBDF7 PUSH1 0xE0 SHL DUP2 MSTORE PUSH1 0x0 PUSH1 0x4 DUP3 ADD MSTORE PUSH1 0x24 ADD JUMPDEST PUSH1 0x40 MLOAD DUP1 SWAP2 SUB SWAP1 REVERT JUMPDEST PUSH3 0x92 DUP2 PUSH3 0xC6 JUMP JUMPDEST POP PUSH1 0x1 PUSH1 0x6 SSTORE PUSH3 0xBD CALLER PUSH3 0xAB PUSH1 0x12 PUSH1 0xA PUSH3 0x631 JUMP JUMPDEST PUSH3 0xB7 SWAP1 DUP5 PUSH3 0x649 JUMP JUMPDEST PUSH3 0x118 JUMP JUMPDEST POP POP POP PUSH3 0x679 JUMP JUMPDEST PUSH1 0x5 DUP1 SLOAD PUSH1 0x1 PUSH1 0x1 PUSH1 0xA0 SHL SUB DUP4 DUP2 AND PUSH1 0x1 PUSH1 0x1 PUSH1 0xA0 SHL SUB NOT DUP4 AND DUP2 OR SWAP1 SWAP4 SSTORE PUSH1 0x40 MLOAD SWAP2 AND SWAP2 SWAP1 DUP3 SWAP1 PUSH32 0x8BE0079C531659141344CD1FD0A4F28419497F9722A3DAAFE3B4186F6B6457E0 SWAP1 PUSH1 0x0 SWAP1 LOG3 POP POP JUMP JUMPDEST PUSH1 0x1 PUSH1 0x1 PUSH1 0xA0 SHL SUB DUP3 AND PUSH3 0x144 JUMPI PUSH1 0x40 MLOAD PUSH4 0xEC442F05 PUSH1 0xE0 SHL DUP2 MSTORE PUSH1 0x0 PUSH1 0x4 DUP3 ADD MSTORE PUSH1 0x24 ADD PUSH3 0x7E JUMP JUMPDEST PUSH3 0x152 PUSH1 0x0 DUP4 DUP4 PUSH3 0x156 JUMP JUMPDEST POP POP JUMP JUMPDEST PUSH1 0x1 PUSH1 0x1 PUSH1 0xA0 SHL SUB DUP4 AND PUSH3 0x185 JUMPI DUP1 PUSH1 0x2 PUSH1 0x0 DUP3 DUP3 SLOAD PUSH3 0x179 SWAP2 SWAP1 PUSH3 0x663 JUMP JUMPDEST SWAP1 SWAP2 SSTORE POP PUSH3 0x1F9 SWAP1 POP JUMP JUMPDEST PUSH1 0x1 PUSH1 0x1 PUSH1 0xA0 SHL SUB DUP4 AND PUSH1 0x0 SWAP1 DUP2 MSTORE PUSH1 0x20 DUP2 SWAP1 MSTORE PUSH1 0x40 SWAP1 KECCAK256 SLOAD DUP2 DUP2 LT ISZERO PUSH3 0x1DA JUMPI PUSH1 0x40 MLOAD PUSH4 0x391434E3 PUSH1 0xE2 SHL DUP2 MSTORE PUSH1 0x1 PUSH1 0x1 PUSH1 0xA0 SHL SUB DUP6 AND PUSH1 0x4 DUP3 ADD MSTORE PUSH1 0x24 DUP2 ADD DUP3 SWAP1 MSTORE PUSH1 0x44 DUP2 ADD DUP4 SWAP1 MSTORE PUSH1 0x64 ADD PUSH3 0x7E JUMP JUMPDEST PUSH1 0x1 PUSH1 0x1 PUSH1 0xA0 SHL SUB DUP5 AND PUSH1 0x0 SWAP1 DUP2 MSTORE PUSH1 0x20 DUP2 SWAP1 MSTORE PUSH1 0x40 SWAP1 KECCAK256 SWAP1 DUP3 SWAP1 SUB SWAP1 SSTORE JUMPDEST PUSH1 0x1 PUSH1 0x1 PUSH1 0xA0 SHL SUB DUP3 AND PUSH3 0x217 JUMPI PUSH1 0x2 DUP1 SLOAD DUP3 SWAP1 SUB SWAP1 SSTORE PUSH3 0x236 JUMP JUMPDEST PUSH1 0x1 PUSH1 0x1 PUSH1 0xA0 SHL SUB DUP3 AND PUSH1 0x0 SWAP1 DUP2 MSTORE PUSH1 0x20 DUP2 SWAP1 MSTORE PUSH1 0x40 SWAP1 KECCAK256 DUP1 SLOAD DUP3 ADD SWAP1 SSTORE JUMPDEST DUP2 PUSH1 0x1 PUSH1 0x1 PUSH1 0xA0 SHL SUB AND DUP4 PUSH1 0x1 PUSH1 0x1 PUSH1 0xA0 SHL SUB AND PUSH32 0xDDF252AD1BE2C89B69C2B068FC378DAA952BA7F163C4A11628F55A4DF523B3EF DUP4 PUSH1 0x40 MLOAD PUSH3 0x27C SWAP2 DUP2 MSTORE PUSH1 0x20 ADD SWAP1 JUMP JUMPDEST PUSH1 0x40 MLOAD DUP1 SWAP2 SUB SWAP1 LOG3 POP POP POP JUMP JUMPDEST PUSH4 0x4E487B71 PUSH1 0xE0 SHL PUSH1 0x0 MSTORE PUSH1 0x41 PUSH1 0x4 MSTORE PUSH1 0x24 PUSH1 0x0 REVERT JUMPDEST PUSH1 0x0 DUP3 PUSH1 0x1F DUP4 ADD SLT PUSH3 0x2B1 JUMPI PUSH1 0x0 DUP1 REVERT JUMPDEST DUP2 MLOAD PUSH1 0x1 PUSH1 0x1 PUSH1 0x40 SHL SUB DUP1 DUP3 GT ISZERO PUSH3 0x2CE JUMPI PUSH3 0x2CE PUSH3 0x289 JUMP JUMPDEST PUSH1 0x40 MLOAD PUSH1 0x1F DUP4 ADD PUSH1 0x1F NOT SWAP1 DUP2 AND PUSH1 0x3F ADD AND DUP2 ADD SWAP1 DUP3 DUP3 GT DUP2 DUP4 LT OR ISZERO PUSH3 0x2F9 JUMPI PUSH3 0x2F9 PUSH3 0x289 JUMP JUMPDEST DUP2 PUSH1 0x40 MSTORE DUP4 DUP2 MSTORE PUSH1 0x20 SWAP3 POP DUP7 DUP4 DUP6 DUP9 ADD ADD GT ISZERO PUSH3 0x316 JUMPI PUSH1 0x0 DUP1 REVERT JUMPDEST PUSH1 0x0 SWAP2 POP JUMPDEST DUP4 DUP3 LT ISZERO PUSH3 0x33A JUMPI DUP6 DUP3 ADD DUP4 ADD MLOAD DUP2 DUP4 ADD DUP5 ADD MSTORE SWAP1 DUP3 ADD SWAP1 PUSH3 0x31B JUMP JUMPDEST PUSH1 0x0 SWAP4 DUP2 ADD SWAP1 SWAP3 ADD SWAP3 SWAP1 SWAP3 MSTORE SWAP5 SWAP4 POP POP POP POP JUMP JUMPDEST PUSH1 0x0 DUP1 PUSH1 0x0 PUSH1 0x60 DUP5 DUP7 SUB SLT ISZERO PUSH3 0x364 JUMPI PUSH1 0x0 DUP1 REVERT JUMPDEST DUP4 MLOAD PUSH1 0x1 PUSH1 0x1 PUSH1 0x40 SHL SUB DUP1 DUP3 GT ISZERO PUSH3 0x37C JUMPI PUSH1 0x0 DUP1 REVERT JUMPDEST PUSH3 0x38A DUP8 DUP4 DUP9 ADD PUSH3 0x29F JUMP JUMPDEST SWAP5 POP PUSH1 0x20 DUP7 ADD MLOAD SWAP2 POP DUP1 DUP3 GT ISZERO PUSH3 0x3A1 JUMPI PUSH1 0x0 DUP1 REVERT JUMPDEST POP PUSH3 0x3B0 DUP7 DUP3 DUP8 ADD PUSH3 0x29F JUMP JUMPDEST SWAP3 POP POP PUSH1 0x40 DUP5 ADD MLOAD SWAP1 POP SWAP3 POP SWAP3 POP SWAP3 JUMP JUMPDEST PUSH1 0x1 DUP2 DUP2 SHR SWAP1 DUP3 AND DUP1 PUSH3 0x3D6 JUMPI PUSH1 0x7F DUP3 AND SWAP2 POP JUMPDEST PUSH1 0x20 DUP3 LT DUP2 SUB PUSH3 0x3F7 JUMPI PUSH4 0x4E487B71 PUSH1 0xE0 SHL PUSH1 0x0 MSTORE PUSH1 0x22 PUSH1 0x4 MSTORE PUSH1 0x24 PUSH1 0x0 REVERT JUMPDEST POP SWAP2 SWAP1 POP JUMP JUMPDEST PUSH1 0x1F DUP3 GT ISZERO PUSH3 0x44B JUMPI PUSH1 0x0 DUP2 DUP2 MSTORE PUSH1 0x20 DUP2 KECCAK256 PUSH1 0x1F DUP6 ADD PUSH1 0x5 SHR DUP2 ADD PUSH1 0x20 DUP7 LT ISZERO PUSH3 0x426 JUMPI POP DUP1 JUMPDEST PUSH1 0x1F DUP6 ADD PUSH1 0x5 SHR DUP3 ADD SWAP2 POP JUMPDEST DUP2 DUP2 LT ISZERO PUSH3 0x447 JUMPI DUP3 DUP2 SSTORE PUSH1 0x1 ADD PUSH3 0x432 JUMP JUMPDEST POP POP POP JUMPDEST POP POP POP JUMP JUMPDEST DUP2 MLOAD PUSH1 0x1 PUSH1 0x1 PUSH1 0x40 SHL SUB DUP2 GT ISZERO PUSH3 0x46C JUMPI PUSH3 0x46C PUSH3 0x289 JUMP JUMPDEST PUSH3 0x484 DUP2 PUSH3 0x47D DUP5 SLOAD PUSH3 0x3C1 JUMP JUMPDEST DUP5 PUSH3 0x3FD JUMP JUMPDEST PUSH1 0x20 DUP1 PUSH1 0x1F DUP4 GT PUSH1 0x1 DUP2 EQ PUSH3 0x4BC JUMPI PUSH1 0x0 DUP5 ISZERO PUSH3 0x4A3 JUMPI POP DUP6 DUP4 ADD MLOAD JUMPDEST PUSH1 0x0 NOT PUSH1 0x3 DUP7 SWAP1 SHL SHR NOT AND PUSH1 0x1 DUP6 SWAP1 SHL OR DUP6 SSTORE PUSH3 0x447 JUMP JUMPDEST PUSH1 0x0 DUP6 DUP2 MSTORE PUSH1 0x20 DUP2 KECCAK256 PUSH1 0x1F NOT DUP7 AND SWAP2 JUMPDEST DUP3 DUP2 LT ISZERO PUSH3 0x4ED JUMPI DUP9 DUP7 ADD MLOAD DUP3 SSTORE SWAP5 DUP5 ADD SWAP5 PUSH1 0x1 SWAP1 SWAP2 ADD SWAP1 DUP5 ADD PUSH3 0x4CC JUMP JUMPDEST POP DUP6 DUP3 LT ISZERO PUSH3 0x50C JUMPI DUP8 DUP6 ADD MLOAD PUSH1 0x0 NOT PUSH1 0x3 DUP9 SWAP1 SHL PUSH1 0xF8 AND SHR NOT AND DUP2 SSTORE JUMPDEST POP POP POP POP POP PUSH1 0x1 SWAP1 DUP2 SHL ADD SWAP1 SSTORE POP JUMP JUMPDEST PUSH4 0x4E487B71 PUSH1 0xE0 SHL PUSH1 0x0 MSTORE PUSH1 0x11 PUSH1 0x4 MSTORE PUSH1 0x24 PUSH1 0x0 REVERT JUMPDEST PUSH1 0x1 DUP2 DUP2 JUMPDEST DUP1 DUP6 GT ISZERO PUSH3 0x573 JUMPI DUP2 PUSH1 0x0 NOT DIV DUP3 GT ISZERO PUSH3 0x557 JUMPI PUSH3 0x557 PUSH3 0x51C JUMP JUMPDEST DUP1 DUP6 AND ISZERO PUSH3 0x565 JUMPI SWAP2 DUP2 MUL SWAP2 JUMPDEST SWAP4 DUP5 SHR SWAP4 SWAP1 DUP1 MUL SWAP1 PUSH3 0x537 JUMP JUMPDEST POP SWAP3 POP SWAP3 SWAP1 POP JUMP JUMPDEST PUSH1 0x0 DUP3 PUSH3 0x58C JUMPI POP PUSH1 0x1 PUSH3 0x62B JUMP JUMPDEST DUP2 PUSH3 0x59B JUMPI POP PUSH1 0x0 PUSH3 0x62B JUMP JUMPDEST DUP2 PUSH1 0x1 DUP2 EQ PUSH3 0x5B4 JUMPI PUSH1 0x2 DUP2 EQ PUSH3 0x5BF JUMPI PUSH3 0x5DF JUMP JUMPDEST PUSH1 0x1 SWAP2 POP POP PUSH3 0x62B JUMP JUMPDEST PUSH1 0xFF DUP5 GT ISZERO PUSH3 0x5D3 JUMPI PUSH3 0x5D3 PUSH3 0x51C JUMP JUMPDEST POP POP PUSH1 0x1 DUP3 SHL PUSH3 0x62B JUMP JUMPDEST POP PUSH1 0x20 DUP4 LT PUSH2 0x133 DUP4 LT AND PUSH1 0x4E DUP5 LT PUSH1 0xB DUP5 LT AND OR ISZERO PUSH3 0x604 JUMPI POP DUP2 DUP2 EXP PUSH3 0x62B JUMP JUMPDEST PUSH3 0x610 DUP4 DUP4 PUSH3 0x532 JUMP JUMPDEST DUP1 PUSH1 0x0 NOT DIV DUP3 GT ISZERO PUSH3 0x627 JUMPI PUSH3 0x627 PUSH3 0x51C JUMP JUMPDEST MUL SWAP1 POP JUMPDEST SWAP3 SWAP2 POP POP JUMP JUMPDEST PUSH1 0x0 PUSH3 0x642 PUSH1 0xFF DUP5 AND DUP4 PUSH3 0x57B JUMP JUMPDEST SWAP4 SWAP3 POP POP POP JUMP JUMPDEST DUP1 DUP3 MUL DUP2 ISZERO DUP3 DUP3 DIV DUP5 EQ OR PUSH3 0x62B JUMPI PUSH3 0x62B PUSH3 0x51C JUMP JUMPDEST DUP1 DUP3 ADD DUP1 DUP3 GT ISZERO PUSH3 0x62B JUMPI PUSH3 0x62B PUSH3 0x51C JUMP JUMPDEST PUSH2 0x1640 DUP1 PUSH3 0x689 PUSH1 0x0 CODECOPY PUSH1 0x0 RETURN INVALID PUSH1 0x80 PUSH1 0x40 MSTORE CALLVALUE DUP1 ISZERO PUSH2 0x10 JUMPI PUSH1 0x0 DUP1 REVERT JUMPDEST POP PUSH1 0x4 CALLDATASIZE LT PUSH2 0x142 JUMPI PUSH1 0x0 CALLDATALOAD PUSH1 0xE0 SHR DUP1 PUSH4 0x70A08231 GT PUSH2 0xB8 JUMPI DUP1 PUSH4 0x95D89B41 GT PUSH2 0x7C JUMPI DUP1 PUSH4 0x95D89B41 EQ PUSH2 0x2E4 JUMPI DUP1 PUSH4 0xA9059CBB EQ PUSH2 0x2EC JUMPI DUP1 PUSH4 0xCCEBFA3F EQ PUSH2 0x2FF JUMPI DUP1 PUSH4 0xDD62ED3E EQ PUSH2 0x312 JUMPI DUP1 PUSH4 0xE75E2C58 EQ PUSH2 0x34B JUMPI DUP1 PUSH4 0xF2FDE38B EQ PUSH2 0x35E JUMPI PUSH1 0x0 DUP1 REVERT JUMPDEST DUP1 PUSH4 0x70A08231 EQ PUSH2 0x272 JUMPI DUP1 PUSH4 0x715018A6 EQ PUSH2 0x29B JUMPI DUP1 PUSH4 0x7C405325 EQ PUSH2 0x2A3 JUMPI DUP1 PUSH4 0x89158D8E EQ PUSH2 0x2B6 JUMPI DUP1 PUSH4 0x8DA5CB5B EQ PUSH2 0x2C9 JUMPI PUSH1 0x0 DUP1 REVERT JUMPDEST DUP1 PUSH4 0x23C1EE43 GT PUSH2 0x10A JUMPI DUP1 PUSH4 0x23C1EE43 EQ PUSH2 0x1DD JUMPI DUP1 PUSH4 0x313CE567 EQ PUSH2 0x206 JUMPI DUP1 PUSH4 0x32C6534B EQ PUSH2 0x215 JUMPI DUP1 PUSH4 0x40C10F19 EQ PUSH2 0x228 JUMPI DUP1 PUSH4 0x61496D59 EQ PUSH2 0x23D JUMPI DUP1 PUSH4 0x6C24A76F EQ PUSH2 0x25F JUMPI PUSH1 0x0 DUP1 REVERT JUMPDEST DUP1 PUSH4 0x6FDDE03 EQ PUSH2 0x147 JUMPI DUP1 PUSH4 0x95EA7B3 EQ PUSH2 0x165 JUMPI DUP1 PUSH4 0x15B9672C EQ PUSH2 0x188 JUMPI DUP1 PUSH4 0x18160DDD EQ PUSH2 0x1B8 JUMPI DUP1 PUSH4 0x23B872DD EQ PUSH2 0x1CA JUMPI JUMPDEST PUSH1 0x0 DUP1 REVERT JUMPDEST PUSH2 0x14F PUSH2 0x371 JUMP JUMPDEST PUSH1 0x40 MLOAD PUSH2 0x15C SWAP2 SWAP1 PUSH2 0x130F JUMP JUMPDEST PUSH1 0x40 MLOAD DUP1 SWAP2 SUB SWAP1 RETURN JUMPDEST PUSH2 0x178 PUSH2 0x173 CALLDATASIZE PUSH1 0x4 PUSH2 0x1379 JUMP JUMPDEST PUSH2 0x403 JUMP JUMPDEST PUSH1 0x40 MLOAD SWAP1 ISZERO ISZERO DUP2 MSTORE PUSH1 0x20 ADD PUSH2 0x15C JUMP JUMPDEST PUSH2 0x19B PUSH2 0x196 CALLDATASIZE PUSH1 0x4 PUSH2 0x1379 JUMP JUMPDEST PUSH2 0x41D JUMP JUMPDEST PUSH1 0x40 DUP1 MLOAD SWAP4 DUP5 MSTORE PUSH1 0x20 DUP5 ADD SWAP3 SWAP1 SWAP3 MSTORE ISZERO ISZERO SWAP1 DUP3 ADD MSTORE PUSH1 0x60 ADD PUSH2 0x15C JUMP JUMPDEST PUSH1 0x2 SLOAD JUMPDEST PUSH1 0x40 MLOAD SWAP1 DUP2 MSTORE PUSH1 0x20 ADD PUSH2 0x15C JUMP JUMPDEST PUSH2 0x178 PUSH2 0x1D8 CALLDATASIZE PUSH1 0x4 PUSH2 0x13A3 JUMP JUMPDEST PUSH2 0x4DA JUMP JUMPDEST PUSH2 0x1BC PUSH2 0x1EB CALLDATASIZE PUSH1 0x4 PUSH2 0x13DF JUMP JUMPDEST PUSH1 0x1 PUSH1 0x1 PUSH1 0xA0 SHL SUB AND PUSH1 0x0 SWAP1 DUP2 MSTORE PUSH1 0x7 PUSH1 0x20 MSTORE PUSH1 0x40 SWAP1 KECCAK256 SLOAD SWAP1 JUMP JUMPDEST PUSH1 0x40 MLOAD PUSH1 0x12 DUP2 MSTORE PUSH1 0x20 ADD PUSH2 0x15C JUMP JUMPDEST PUSH2 0x178 PUSH2 0x223 CALLDATASIZE PUSH1 0x4 PUSH2 0x1379 JUMP JUMPDEST PUSH2 0x51C JUMP JUMPDEST PUSH2 0x23B PUSH2 0x236 CALLDATASIZE PUSH1 0x4 PUSH2 0x1379 JUMP JUMPDEST PUSH2 0x5AC JUMP JUMPDEST STOP JUMPDEST PUSH2 0x250 PUSH2 0x24B CALLDATASIZE PUSH1 0x4 PUSH2 0x13DF JUMP JUMPDEST PUSH2 0x5C2 JUMP JUMPDEST PUSH1 0x40 MLOAD PUSH2 0x15C SWAP4 SWAP3 SWAP2 SWAP1 PUSH2 0x143C JUMP JUMPDEST PUSH2 0x1BC PUSH2 0x26D CALLDATASIZE PUSH1 0x4 PUSH2 0x13DF JUMP JUMPDEST PUSH2 0x907 JUMP JUMPDEST PUSH2 0x1BC PUSH2 0x280 CALLDATASIZE PUSH1 0x4 PUSH2 0x13DF JUMP JUMPDEST PUSH1 0x1 PUSH1 0x1 PUSH1 0xA0 SHL SUB AND PUSH1 0x0 SWAP1 DUP2 MSTORE PUSH1 0x20 DUP2 SWAP1 MSTORE PUSH1 0x40 SWAP1 KECCAK256 SLOAD SWAP1 JUMP JUMPDEST PUSH2 0x23B PUSH2 0x9AD JUMP JUMPDEST PUSH2 0x23B PUSH2 0x2B1 CALLDATASIZE PUSH1 0x4 PUSH2 0x147F JUMP JUMPDEST PUSH2 0x9C1 JUMP JUMPDEST PUSH2 0x23B PUSH2 0x2C4 CALLDATASIZE PUSH1 0x4 PUSH2 0x1498 JUMP JUMPDEST PUSH2 0xB99 JUMP JUMPDEST PUSH1 0x5 SLOAD PUSH1 0x40 MLOAD PUSH1 0x1 PUSH1 0x1 PUSH1 0xA0 SHL SUB SWAP1 SWAP2 AND DUP2 MSTORE PUSH1 0x20 ADD PUSH2 0x15C JUMP JUMPDEST PUSH2 0x14F PUSH2 0xD7D JUMP JUMPDEST PUSH2 0x178 PUSH2 0x2FA CALLDATASIZE PUSH1 0x4 PUSH2 0x1379 JUMP JUMPDEST PUSH2 0xD8C JUMP JUMPDEST PUSH2 0x19B PUSH2 0x30D CALLDATASIZE PUSH1 0x4 PUSH2 0x1379 JUMP JUMPDEST PUSH2 0xDC4 JUMP JUMPDEST PUSH2 0x1BC PUSH2 0x320 CALLDATASIZE PUSH1 0x4 PUSH2 0x14BA JUMP JUMPDEST PUSH1 0x1 PUSH1 0x1 PUSH1 0xA0 SHL SUB SWAP2 DUP3 AND PUSH1 0x0 SWAP1 DUP2 MSTORE PUSH1 0x1 PUSH1 0x20 SWAP1 DUP2 MSTORE PUSH1 0x40 DUP1 DUP4 KECCAK256 SWAP4 SWAP1 SWAP5 AND DUP3 MSTORE SWAP2 SWAP1 SWAP2 MSTORE KECCAK256 SLOAD SWAP1 JUMP JUMPDEST PUSH2 0x1BC PUSH2 0x359 CALLDATASIZE PUSH1 0x4 PUSH2 0x13DF JUMP JUMPDEST PUSH2 0xE09 JUMP JUMPDEST PUSH2 0x23B PUSH2 0x36C CALLDATASIZE PUSH1 0x4 PUSH2 0x13DF JUMP JUMPDEST PUSH2 0xED9 JUMP JUMPDEST PUSH1 0x60 PUSH1 0x3 DUP1 SLOAD PUSH2 0x380 SWAP1 PUSH2 0x14ED JUMP JUMPDEST DUP1 PUSH1 0x1F ADD PUSH1 0x20 DUP1 SWAP2 DIV MUL PUSH1 0x20 ADD PUSH1 0x40 MLOAD SWAP1 DUP2 ADD PUSH1 0x40 MSTORE DUP1 SWAP3 SWAP2 SWAP1 DUP2 DUP2 MSTORE PUSH1 0x20 ADD DUP3 DUP1 SLOAD PUSH2 0x3AC SWAP1 PUSH2 0x14ED JUMP JUMPDEST DUP1 ISZERO PUSH2 0x3F9 JUMPI DUP1 PUSH1 0x1F LT PUSH2 0x3CE JUMPI PUSH2 0x100 DUP1 DUP4 SLOAD DIV MUL DUP4 MSTORE SWAP2 PUSH1 0x20 ADD SWAP2 PUSH2 0x3F9 JUMP JUMPDEST DUP3 ADD SWAP2 SWAP1 PUSH1 0x0 MSTORE PUSH1 0x20 PUSH1 0x0 KECCAK256 SWAP1 JUMPDEST DUP2 SLOAD DUP2 MSTORE SWAP1 PUSH1 0x1 ADD SWAP1 PUSH1 0x20 ADD DUP1 DUP4 GT PUSH2 0x3DC JUMPI DUP3 SWAP1 SUB PUSH1 0x1F AND DUP3 ADD SWAP2 JUMPDEST POP POP POP POP POP SWAP1 POP SWAP1 JUMP JUMPDEST PUSH1 0x0 CALLER PUSH2 0x411 DUP2 DUP6 DUP6 PUSH2 0xF14 JUMP JUMPDEST PUSH1 0x1 SWAP2 POP POP JUMPDEST SWAP3 SWAP2 POP POP JUMP JUMPDEST PUSH1 0x1 PUSH1 0x1 PUSH1 0xA0 SHL SUB DUP3 AND PUSH1 0x0 SWAP1 DUP2 MSTORE PUSH1 0x7 PUSH1 0x20 MSTORE PUSH1 0x40 DUP2 KECCAK256 SLOAD DUP2 SWAP1 DUP2 SWAP1 DUP5 LT PUSH2 0x482 JUMPI PUSH1 0x40 MLOAD PUSH3 0x461BCD PUSH1 0xE5 SHL DUP2 MSTORE PUSH1 0x20 PUSH1 0x4 DUP3 ADD MSTORE PUSH1 0x12 PUSH1 0x24 DUP3 ADD MSTORE PUSH18 0x92DCECC2D8D2C840D8DEC6D640D2DCC8CAF PUSH1 0x73 SHL PUSH1 0x44 DUP3 ADD MSTORE PUSH1 0x64 ADD JUMPDEST PUSH1 0x40 MLOAD DUP1 SWAP2 SUB SWAP1 REVERT JUMPDEST PUSH1 0x1 PUSH1 0x1 PUSH1 0xA0 SHL SUB DUP6 AND PUSH1 0x0 SWAP1 DUP2 MSTORE PUSH1 0x7 PUSH1 0x20 MSTORE PUSH1 0x40 DUP2 KECCAK256 DUP1 SLOAD DUP7 SWAP1 DUP2 LT PUSH2 0x4AC JUMPI PUSH2 0x4AC PUSH2 0x1527 JUMP JUMPDEST PUSH1 0x0 SWAP2 DUP3 MSTORE PUSH1 0x20 SWAP1 SWAP2 KECCAK256 PUSH1 0x3 SWAP1 SWAP2 MUL ADD DUP1 SLOAD PUSH1 0x1 DUP3 ADD SLOAD PUSH1 0x2 SWAP1 SWAP3 ADD SLOAD SWAP1 SWAP9 SWAP2 SWAP8 POP PUSH1 0xFF AND SWAP6 POP SWAP4 POP POP POP POP JUMP JUMPDEST PUSH1 0x0 DUP1 PUSH2 0x4E6 DUP6 PUSH2 0x907 JUMP JUMPDEST SWAP1 POP DUP1 DUP4 GT ISZERO PUSH2 0x508 JUMPI PUSH1 0x40 MLOAD PUSH3 0x461BCD PUSH1 0xE5 SHL DUP2 MSTORE PUSH1 0x4 ADD PUSH2 0x479 SWAP1 PUSH2 0x153D JUMP JUMPDEST PUSH2 0x513 DUP6 DUP6 DUP6 PUSH2 0xF26 JUMP JUMPDEST SWAP6 SWAP5 POP POP POP POP POP JUMP JUMPDEST PUSH1 0x1 PUSH1 0x1 PUSH1 0xA0 SHL SUB DUP3 AND PUSH1 0x0 SWAP1 DUP2 MSTORE PUSH1 0x7 PUSH1 0x20 MSTORE PUSH1 0x40 DUP2 KECCAK256 SLOAD DUP3 LT PUSH2 0x543 JUMPI POP PUSH1 0x0 PUSH2 0x417 JUMP JUMPDEST PUSH1 0x1 PUSH1 0x1 PUSH1 0xA0 SHL SUB DUP4 AND PUSH1 0x0 SWAP1 DUP2 MSTORE PUSH1 0x7 PUSH1 0x20 MSTORE PUSH1 0x40 DUP2 KECCAK256 DUP1 SLOAD DUP5 SWAP1 DUP2 LT PUSH2 0x56D JUMPI PUSH2 0x56D PUSH2 0x1527 JUMP JUMPDEST PUSH1 0x0 SWAP2 DUP3 MSTORE PUSH1 0x20 SWAP1 SWAP2 KECCAK256 PUSH1 0x3 SWAP1 SWAP2 MUL ADD PUSH1 0x2 DUP2 ADD SLOAD SWAP1 SWAP2 POP PUSH1 0xFF AND DUP1 ISZERO PUSH2 0x594 JUMPI POP DUP1 SLOAD ISZERO ISZERO JUMPDEST DUP1 ISZERO PUSH2 0x5A4 JUMPI POP DUP1 PUSH1 0x1 ADD SLOAD TIMESTAMP LT ISZERO JUMPDEST SWAP5 SWAP4 POP POP POP POP JUMP JUMPDEST PUSH2 0x5B4 PUSH2 0xF4A JUMP JUMPDEST PUSH2 0x5BE DUP3 DUP3 PUSH2 0xF77 JUMP JUMPDEST POP POP JUMP JUMPDEST PUSH1 0x1 PUSH1 0x1 PUSH1 0xA0 SHL SUB DUP2 AND PUSH1 0x0 SWAP1 DUP2 MSTORE PUSH1 0x7 PUSH1 0x20 MSTORE PUSH1 0x40 DUP2 KECCAK256 SLOAD PUSH1 0x60 SWAP2 DUP3 SWAP2 DUP3 SWAP2 DUP1 JUMPDEST DUP3 DUP2 LT ISZERO PUSH2 0x697 JUMPI PUSH1 0x1 PUSH1 0x1 PUSH1 0xA0 SHL SUB DUP8 AND PUSH1 0x0 SWAP1 DUP2 MSTORE PUSH1 0x7 PUSH1 0x20 MSTORE PUSH1 0x40 SWAP1 KECCAK256 DUP1 SLOAD DUP3 SWAP1 DUP2 LT PUSH2 0x616 JUMPI PUSH2 0x616 PUSH2 0x1527 JUMP JUMPDEST PUSH1 0x0 SWAP2 DUP3 MSTORE PUSH1 0x20 SWAP1 SWAP2 KECCAK256 PUSH1 0x2 PUSH1 0x3 SWAP1 SWAP3 MUL ADD ADD SLOAD PUSH1 0xFF AND DUP1 ISZERO PUSH2 0x672 JUMPI POP PUSH1 0x1 PUSH1 0x1 PUSH1 0xA0 SHL SUB DUP8 AND PUSH1 0x0 SWAP1 DUP2 MSTORE PUSH1 0x7 PUSH1 0x20 MSTORE PUSH1 0x40 DUP2 KECCAK256 DUP1 SLOAD DUP4 SWAP1 DUP2 LT PUSH2 0x65E JUMPI PUSH2 0x65E PUSH2 0x1527 JUMP JUMPDEST SWAP1 PUSH1 0x0 MSTORE PUSH1 0x20 PUSH1 0x0 KECCAK256 SWAP1 PUSH1 0x3 MUL ADD PUSH1 0x0 ADD SLOAD GT JUMPDEST ISZERO PUSH2 0x685 JUMPI DUP2 PUSH2 0x681 DUP2 PUSH2 0x159C JUMP JUMPDEST SWAP3 POP POP JUMPDEST DUP1 PUSH2 0x68F DUP2 PUSH2 0x159C JUMP JUMPDEST SWAP2 POP POP PUSH2 0x5E4 JUMP JUMPDEST POP DUP1 PUSH8 0xFFFFFFFFFFFFFFFF DUP2 GT ISZERO PUSH2 0x6B1 JUMPI PUSH2 0x6B1 PUSH2 0x15B5 JUMP JUMPDEST PUSH1 0x40 MLOAD SWAP1 DUP1 DUP3 MSTORE DUP1 PUSH1 0x20 MUL PUSH1 0x20 ADD DUP3 ADD PUSH1 0x40 MSTORE DUP1 ISZERO PUSH2 0x6DA JUMPI DUP2 PUSH1 0x20 ADD PUSH1 0x20 DUP3 MUL DUP1 CALLDATASIZE DUP4 CALLDATACOPY ADD SWAP1 POP JUMPDEST POP SWAP5 POP DUP1 PUSH8 0xFFFFFFFFFFFFFFFF DUP2 GT ISZERO PUSH2 0x6F6 JUMPI PUSH2 0x6F6 PUSH2 0x15B5 JUMP JUMPDEST PUSH1 0x40 MLOAD SWAP1 DUP1 DUP3 MSTORE DUP1 PUSH1 0x20 MUL PUSH1 0x20 ADD DUP3 ADD PUSH1 0x40 MSTORE DUP1 ISZERO PUSH2 0x71F JUMPI DUP2 PUSH1 0x20 ADD PUSH1 0x20 DUP3 MUL DUP1 CALLDATASIZE DUP4 CALLDATACOPY ADD SWAP1 POP JUMPDEST POP SWAP4 POP DUP1 PUSH8 0xFFFFFFFFFFFFFFFF DUP2 GT ISZERO PUSH2 0x73B JUMPI PUSH2 0x73B PUSH2 0x15B5 JUMP JUMPDEST PUSH1 0x40 MLOAD SWAP1 DUP1 DUP3 MSTORE DUP1 PUSH1 0x20 MUL PUSH1 0x20 ADD DUP3 ADD PUSH1 0x40 MSTORE DUP1 ISZERO PUSH2 0x764 JUMPI DUP2 PUSH1 0x20 ADD PUSH1 0x20 DUP3 MUL DUP1 CALLDATASIZE DUP4 CALLDATACOPY ADD SWAP1 POP JUMPDEST POP SWAP3 POP PUSH1 0x0 DUP1 JUMPDEST DUP4 DUP2 LT ISZERO PUSH2 0x8FC JUMPI PUSH1 0x1 PUSH1 0x1 PUSH1 0xA0 SHL SUB DUP9 AND PUSH1 0x0 SWAP1 DUP2 MSTORE PUSH1 0x7 PUSH1 0x20 MSTORE PUSH1 0x40 SWAP1 KECCAK256 DUP1 SLOAD DUP3 SWAP1 DUP2 LT PUSH2 0x79D JUMPI PUSH2 0x79D PUSH2 0x1527 JUMP JUMPDEST PUSH1 0x0 SWAP2 DUP3 MSTORE PUSH1 0x20 SWAP1 SWAP2 KECCAK256 PUSH1 0x2 PUSH1 0x3 SWAP1 SWAP3 MUL ADD ADD SLOAD PUSH1 0xFF AND DUP1 ISZERO PUSH2 0x7F9 JUMPI POP PUSH1 0x1 PUSH1 0x1 PUSH1 0xA0 SHL SUB DUP9 AND PUSH1 0x0 SWAP1 DUP2 MSTORE PUSH1 0x7 PUSH1 0x20 MSTORE PUSH1 0x40 DUP2 KECCAK256 DUP1 SLOAD DUP4 SWAP1 DUP2 LT PUSH2 0x7E5 JUMPI PUSH2 0x7E5 PUSH2 0x1527 JUMP JUMPDEST SWAP1 PUSH1 0x0 MSTORE PUSH1 0x20 PUSH1 0x0 KECCAK256 SWAP1 PUSH1 0x3 MUL ADD PUSH1 0x0 ADD SLOAD GT JUMPDEST ISZERO PUSH2 0x8EA JUMPI PUSH1 0x1 PUSH1 0x1 PUSH1 0xA0 SHL SUB DUP9 AND PUSH1 0x0 SWAP1 DUP2 MSTORE PUSH1 0x7 PUSH1 0x20 MSTORE PUSH1 0x40 SWAP1 KECCAK256 DUP1 SLOAD DUP3 SWAP1 DUP2 LT PUSH2 0x828 JUMPI PUSH2 0x828 PUSH2 0x1527 JUMP JUMPDEST SWAP1 PUSH1 0x0 MSTORE PUSH1 0x20 PUSH1 0x0 KECCAK256 SWAP1 PUSH1 0x3 MUL ADD PUSH1 0x0 ADD SLOAD DUP8 DUP4 DUP2 MLOAD DUP2 LT PUSH2 0x84C JUMPI PUSH2 0x84C PUSH2 0x1527 JUMP JUMPDEST PUSH1 0x20 MUL PUSH1 0x20 ADD ADD DUP2 DUP2 MSTORE POP POP PUSH1 0x7 PUSH1 0x0 DUP10 PUSH1 0x1 PUSH1 0x1 PUSH1 0xA0 SHL SUB AND PUSH1 0x1 PUSH1 0x1 PUSH1 0xA0 SHL SUB AND DUP2 MSTORE PUSH1 0x20 ADD SWAP1 DUP2 MSTORE PUSH1 0x20 ADD PUSH1 0x0 KECCAK256 DUP2 DUP2 SLOAD DUP2 LT PUSH2 0x88E JUMPI PUSH2 0x88E PUSH2 0x1527 JUMP JUMPDEST SWAP1 PUSH1 0x0 MSTORE PUSH1 0x20 PUSH1 0x0 KECCAK256 SWAP1 PUSH1 0x3 MUL ADD PUSH1 0x1 ADD SLOAD DUP7 DUP4 DUP2 MLOAD DUP2 LT PUSH2 0x8B2 JUMPI PUSH2 0x8B2 PUSH2 0x1527 JUMP JUMPDEST PUSH1 0x20 MUL PUSH1 0x20 ADD ADD DUP2 DUP2 MSTORE POP POP DUP1 DUP6 DUP4 DUP2 MLOAD DUP2 LT PUSH2 0x8D1 JUMPI PUSH2 0x8D1 PUSH2 0x1527 JUMP JUMPDEST PUSH1 0x20 SWAP1 DUP2 MUL SWAP2 SWAP1 SWAP2 ADD ADD MSTORE DUP2 PUSH2 0x8E6 DUP2 PUSH2 0x159C JUMP JUMPDEST SWAP3 POP POP JUMPDEST DUP1 PUSH2 0x8F4 DUP2 PUSH2 0x159C JUMP JUMPDEST SWAP2 POP POP PUSH2 0x76B JUMP JUMPDEST POP POP POP POP SWAP2 SWAP4 SWAP1 SWAP3 POP JUMP JUMPDEST PUSH1 0x1 PUSH1 0x1 PUSH1 0xA0 SHL SUB DUP2 AND PUSH1 0x0 SWAP1 DUP2 MSTORE PUSH1 0x20 DUP2 SWAP1 MSTORE PUSH1 0x40 DUP2 KECCAK256 SLOAD DUP2 SWAP1 PUSH1 0x40 MLOAD PUSH4 0x1CEBC58B PUSH1 0xE3 SHL DUP2 MSTORE PUSH1 0x1 PUSH1 0x1 PUSH1 0xA0 SHL SUB DUP6 AND PUSH1 0x4 DUP3 ADD MSTORE SWAP1 SWAP2 POP PUSH1 0x0 SWAP1 ADDRESS SWAP1 PUSH4 0xE75E2C58 SWAP1 PUSH1 0x24 ADD PUSH1 0x20 PUSH1 0x40 MLOAD DUP1 DUP4 SUB DUP2 DUP7 GAS STATICCALL ISZERO DUP1 ISZERO PUSH2 0x96C JUMPI RETURNDATASIZE PUSH1 0x0 DUP1 RETURNDATACOPY RETURNDATASIZE PUSH1 0x0 REVERT JUMPDEST POP POP POP POP PUSH1 0x40 MLOAD RETURNDATASIZE PUSH1 0x1F NOT PUSH1 0x1F DUP3 ADD AND DUP3 ADD DUP1 PUSH1 0x40 MSTORE POP DUP2 ADD SWAP1 PUSH2 0x990 SWAP2 SWAP1 PUSH2 0x15CB JUMP JUMPDEST SWAP1 POP DUP2 DUP2 LT PUSH2 0x9A3 JUMPI POP PUSH1 0x0 SWAP4 SWAP3 POP POP POP JUMP JUMPDEST PUSH2 0x5A4 DUP2 DUP4 PUSH2 0x15E4 JUMP JUMPDEST PUSH2 0x9B5 PUSH2 0xF4A JUMP JUMPDEST PUSH2 0x9BF PUSH1 0x0 PUSH2 0xFAD JUMP JUMPDEST JUMP JUMPDEST PUSH2 0x9C9 PUSH2 0xFFF JUMP JUMPDEST CALLER PUSH1 0x0 SWAP1 DUP2 MSTORE PUSH1 0x7 PUSH1 0x20 MSTORE PUSH1 0x40 SWAP1 KECCAK256 SLOAD DUP2 LT PUSH2 0xA1C JUMPI PUSH1 0x40 MLOAD PUSH3 0x461BCD PUSH1 0xE5 SHL DUP2 MSTORE PUSH1 0x20 PUSH1 0x4 DUP3 ADD MSTORE PUSH1 0x12 PUSH1 0x24 DUP3 ADD MSTORE PUSH18 0x92DCECC2D8D2C840D8DEC6D640D2DCC8CAF PUSH1 0x73 SHL PUSH1 0x44 DUP3 ADD MSTORE PUSH1 0x64 ADD PUSH2 0x479 JUMP JUMPDEST CALLER PUSH1 0x0 SWAP1 DUP2 MSTORE PUSH1 0x7 PUSH1 0x20 MSTORE PUSH1 0x40 DUP2 KECCAK256 DUP1 SLOAD DUP4 SWAP1 DUP2 LT PUSH2 0xA3D JUMPI PUSH2 0xA3D PUSH2 0x1527 JUMP JUMPDEST PUSH1 0x0 SWAP2 DUP3 MSTORE PUSH1 0x20 SWAP1 SWAP2 KECCAK256 PUSH1 0x3 SWAP1 SWAP2 MUL ADD PUSH1 0x2 DUP2 ADD SLOAD SWAP1 SWAP2 POP PUSH1 0xFF AND PUSH2 0xA9A JUMPI PUSH1 0x40 MLOAD PUSH3 0x461BCD PUSH1 0xE5 SHL DUP2 MSTORE PUSH1 0x20 PUSH1 0x4 DUP3 ADD MSTORE PUSH1 0x13 PUSH1 0x24 DUP3 ADD MSTORE PUSH19 0x131BD8DAC8191BD95CC81B9BDD08195E1A5CDD PUSH1 0x6A SHL PUSH1 0x44 DUP3 ADD MSTORE PUSH1 0x64 ADD PUSH2 0x479 JUMP JUMPDEST DUP1 PUSH1 0x1 ADD SLOAD TIMESTAMP LT ISZERO PUSH2 0xAEE JUMPI PUSH1 0x40 MLOAD PUSH3 0x461BCD PUSH1 0xE5 SHL DUP2 MSTORE PUSH1 0x20 PUSH1 0x4 DUP3 ADD MSTORE PUSH1 0x17 PUSH1 0x24 DUP3 ADD MSTORE PUSH32 0x546F6B656E7320617265207374696C6C206C6F636B6564000000000000000000 PUSH1 0x44 DUP3 ADD MSTORE PUSH1 0x64 ADD PUSH2 0x479 JUMP JUMPDEST DUP1 SLOAD PUSH2 0xB32 JUMPI PUSH1 0x40 MLOAD PUSH3 0x461BCD PUSH1 0xE5 SHL DUP2 MSTORE PUSH1 0x20 PUSH1 0x4 DUP3 ADD MSTORE PUSH1 0x13 PUSH1 0x24 DUP3 ADD MSTORE PUSH19 0x4E6F20746F6B656E7320746F20756E6C6F636B PUSH1 0x68 SHL PUSH1 0x44 DUP3 ADD MSTORE PUSH1 0x64 ADD PUSH2 0x479 JUMP JUMPDEST DUP1 SLOAD PUSH1 0x0 DUP3 SSTORE PUSH1 0x2 DUP3 ADD DUP1 SLOAD PUSH1 0xFF NOT AND SWAP1 SSTORE PUSH2 0xB4F ADDRESS CALLER DUP4 PUSH2 0x1029 JUMP JUMPDEST PUSH1 0x40 DUP1 MLOAD DUP3 DUP2 MSTORE PUSH1 0x20 DUP2 ADD DUP6 SWAP1 MSTORE CALLER SWAP2 PUSH32 0x89882AD382A3742D4DB24E4DABC5000C5852AED762904DB28442E4E1630A1D07 SWAP2 ADD PUSH1 0x40 MLOAD DUP1 SWAP2 SUB SWAP1 LOG2 POP POP PUSH2 0xB96 PUSH1 0x1 PUSH1 0x6 SSTORE JUMP JUMPDEST POP JUMP JUMPDEST PUSH2 0xBA1 PUSH2 0xFFF JUMP JUMPDEST PUSH1 0x0 DUP3 GT PUSH2 0xBF1 JUMPI PUSH1 0x40 MLOAD PUSH3 0x461BCD PUSH1 0xE5 SHL DUP2 MSTORE PUSH1 0x20 PUSH1 0x4 DUP3 ADD MSTORE PUSH1 0x1D PUSH1 0x24 DUP3 ADD MSTORE PUSH32 0x416D6F756E74206D7573742062652067726561746572207468616E2030000000 PUSH1 0x44 DUP3 ADD MSTORE PUSH1 0x64 ADD PUSH2 0x479 JUMP JUMPDEST PUSH1 0x0 DUP2 GT PUSH2 0xC4D JUMPI PUSH1 0x40 MLOAD PUSH3 0x461BCD PUSH1 0xE5 SHL DUP2 MSTORE PUSH1 0x20 PUSH1 0x4 DUP3 ADD MSTORE PUSH1 0x24 DUP1 DUP3 ADD MSTORE PUSH32 0x4C6F636B206475726174696F6E206D7573742062652067726561746572207468 PUSH1 0x44 DUP3 ADD MSTORE PUSH4 0x616E203 PUSH1 0xE4 SHL PUSH1 0x64 DUP3 ADD MSTORE PUSH1 0x84 ADD PUSH2 0x479 JUMP JUMPDEST CALLER PUSH1 0x0 SWAP1 DUP2 MSTORE PUSH1 0x20 DUP2 SWAP1 MSTORE PUSH1 0x40 SWAP1 KECCAK256 SLOAD DUP3 GT ISZERO PUSH2 0xCA3 JUMPI PUSH1 0x40 MLOAD PUSH3 0x461BCD PUSH1 0xE5 SHL DUP2 MSTORE PUSH1 0x20 PUSH1 0x4 DUP3 ADD MSTORE PUSH1 0x14 PUSH1 0x24 DUP3 ADD MSTORE PUSH20 0x496E73756666696369656E742062616C616E6365 PUSH1 0x60 SHL PUSH1 0x44 DUP3 ADD MSTORE PUSH1 0x64 ADD PUSH2 0x479 JUMP JUMPDEST PUSH1 0x0 PUSH2 0xCAF DUP3 TIMESTAMP PUSH2 0x15F7 JUMP JUMPDEST SWAP1 POP PUSH2 0xCBC CALLER ADDRESS DUP6 PUSH2 0x1029 JUMP JUMPDEST PUSH1 0x40 DUP1 MLOAD PUSH1 0x60 DUP2 ADD DUP3 MSTORE DUP5 DUP2 MSTORE PUSH1 0x20 DUP1 DUP3 ADD DUP5 DUP2 MSTORE PUSH1 0x1 DUP4 DUP6 ADD DUP2 DUP2 MSTORE CALLER PUSH1 0x0 DUP2 DUP2 MSTORE PUSH1 0x7 DUP7 MSTORE SWAP7 DUP8 KECCAK256 DUP1 SLOAD DUP1 DUP6 ADD DUP3 SSTORE DUP2 DUP10 MSTORE SWAP6 DUP9 KECCAK256 DUP8 MLOAD PUSH1 0x3 SWAP1 SWAP8 MUL ADD SWAP6 DUP7 SSTORE SWAP4 MLOAD DUP6 DUP5 ADD SSTORE SWAP1 MLOAD PUSH1 0x2 SWAP1 SWAP5 ADD DUP1 SLOAD PUSH1 0xFF NOT AND SWAP5 ISZERO ISZERO SWAP5 SWAP1 SWAP5 OR SWAP1 SWAP4 SSTORE SWAP4 DUP3 SWAP1 MSTORE SLOAD SWAP2 SWAP3 SWAP1 SWAP2 PUSH32 0x90E20A62E0F2A608D33BD96A4E15CB853006A15CAF4455F373B7B55DE520B68C SWAP2 DUP8 SWAP2 DUP7 SWAP2 PUSH2 0xD53 SWAP2 PUSH2 0x15E4 JUMP JUMPDEST PUSH1 0x40 DUP1 MLOAD SWAP4 DUP5 MSTORE PUSH1 0x20 DUP5 ADD SWAP3 SWAP1 SWAP3 MSTORE SWAP1 DUP3 ADD MSTORE PUSH1 0x60 ADD PUSH1 0x40 MLOAD DUP1 SWAP2 SUB SWAP1 LOG2 POP POP PUSH2 0x5BE PUSH1 0x1 PUSH1 0x6 SSTORE JUMP JUMPDEST PUSH1 0x60 PUSH1 0x4 DUP1 SLOAD PUSH2 0x380 SWAP1 PUSH2 0x14ED JUMP JUMPDEST PUSH1 0x0 DUP1 PUSH2 0xD98 CALLER PUSH2 0x907 JUMP JUMPDEST SWAP1 POP DUP1 DUP4 GT ISZERO PUSH2 0xDBA JUMPI PUSH1 0x40 MLOAD PUSH3 0x461BCD PUSH1 0xE5 SHL DUP2 MSTORE PUSH1 0x4 ADD PUSH2 0x479 SWAP1 PUSH2 0x153D JUMP JUMPDEST PUSH2 0x5A4 DUP5 DUP5 PUSH2 0x1088 JUMP JUMPDEST PUSH1 0x7 PUSH1 0x20 MSTORE DUP2 PUSH1 0x0 MSTORE PUSH1 0x40 PUSH1 0x0 KECCAK256 DUP2 DUP2 SLOAD DUP2 LT PUSH2 0xDE0 JUMPI PUSH1 0x0 DUP1 REVERT JUMPDEST PUSH1 0x0 SWAP2 DUP3 MSTORE PUSH1 0x20 SWAP1 SWAP2 KECCAK256 PUSH1 0x3 SWAP1 SWAP2 MUL ADD DUP1 SLOAD PUSH1 0x1 DUP3 ADD SLOAD PUSH1 0x2 SWAP1 SWAP3 ADD SLOAD SWAP1 SWAP4 POP SWAP1 SWAP2 POP PUSH1 0xFF AND DUP4 JUMP JUMPDEST PUSH1 0x1 PUSH1 0x1 PUSH1 0xA0 SHL SUB DUP2 AND PUSH1 0x0 SWAP1 DUP2 MSTORE PUSH1 0x7 PUSH1 0x20 MSTORE PUSH1 0x40 DUP2 KECCAK256 SLOAD DUP2 SWAP1 DUP2 JUMPDEST DUP2 DUP2 LT ISZERO PUSH2 0xED0 JUMPI PUSH1 0x1 PUSH1 0x1 PUSH1 0xA0 SHL SUB DUP6 AND PUSH1 0x0 SWAP1 DUP2 MSTORE PUSH1 0x7 PUSH1 0x20 MSTORE PUSH1 0x40 SWAP1 KECCAK256 DUP1 SLOAD DUP3 SWAP1 DUP2 LT PUSH2 0xE58 JUMPI PUSH2 0xE58 PUSH2 0x1527 JUMP JUMPDEST PUSH1 0x0 SWAP2 DUP3 MSTORE PUSH1 0x20 SWAP1 SWAP2 KECCAK256 PUSH1 0x2 PUSH1 0x3 SWAP1 SWAP3 MUL ADD ADD SLOAD PUSH1 0xFF AND ISZERO PUSH2 0xEBE JUMPI PUSH1 0x1 PUSH1 0x1 PUSH1 0xA0 SHL SUB DUP6 AND PUSH1 0x0 SWAP1 DUP2 MSTORE PUSH1 0x7 PUSH1 0x20 MSTORE PUSH1 0x40 SWAP1 KECCAK256 DUP1 SLOAD DUP3 SWAP1 DUP2 LT PUSH2 0xE9E JUMPI PUSH2 0xE9E PUSH2 0x1527 JUMP JUMPDEST SWAP1 PUSH1 0x0 MSTORE PUSH1 0x20 PUSH1 0x0 KECCAK256 SWAP1 PUSH1 0x3 MUL ADD PUSH1 0x0 ADD SLOAD DUP4 PUSH2 0xEBB SWAP2 SWAP1 PUSH2 0x15F7 JUMP JUMPDEST SWAP3 POP JUMPDEST DUP1 PUSH2 0xEC8 DUP2 PUSH2 0x159C JUMP JUMPDEST SWAP2 POP POP PUSH2 0xE26 JUMP JUMPDEST POP SWAP1 SWAP4 SWAP3 POP POP POP JUMP JUMPDEST PUSH2 0xEE1 PUSH2 0xF4A JUMP JUMPDEST PUSH1 0x1 PUSH1 0x1 PUSH1 0xA0 SHL SUB DUP2 AND PUSH2 0xF0B JUMPI PUSH1 0x40 MLOAD PUSH4 0x1E4FBDF7 PUSH1 0xE0 SHL DUP2 MSTORE PUSH1 0x0 PUSH1 0x4 DUP3 ADD MSTORE PUSH1 0x24 ADD PUSH2 0x479 JUMP JUMPDEST PUSH2 0xB96 DUP2 PUSH2 0xFAD JUMP JUMPDEST PUSH2 0xF21 DUP4 DUP4 DUP4 PUSH1 0x1 PUSH2 0x1096 JUMP JUMPDEST POP POP POP JUMP JUMPDEST PUSH1 0x0 CALLER PUSH2 0xF34 DUP6 DUP3 DUP6 PUSH2 0x116C JUMP JUMPDEST PUSH2 0xF3F DUP6 DUP6 DUP6 PUSH2 0x1029 JUMP JUMPDEST POP PUSH1 0x1 SWAP5 SWAP4 POP POP POP POP JUMP JUMPDEST PUSH1 0x5 SLOAD PUSH1 0x1 PUSH1 0x1 PUSH1 0xA0 SHL SUB AND CALLER EQ PUSH2 0x9BF JUMPI PUSH1 0x40 MLOAD PUSH4 0x118CDAA7 PUSH1 0xE0 SHL DUP2 MSTORE CALLER PUSH1 0x4 DUP3 ADD MSTORE PUSH1 0x24 ADD PUSH2 0x479 JUMP JUMPDEST PUSH1 0x1 PUSH1 0x1 PUSH1 0xA0 SHL SUB DUP3 AND PUSH2 0xFA1 JUMPI PUSH1 0x40 MLOAD PUSH4 0xEC442F05 PUSH1 0xE0 SHL DUP2 MSTORE PUSH1 0x0 PUSH1 0x4 DUP3 ADD MSTORE PUSH1 0x24 ADD PUSH2 0x479 JUMP JUMPDEST PUSH2 0x5BE PUSH1 0x0 DUP4 DUP4 PUSH2 0x11E5 JUMP JUMPDEST PUSH1 0x5 DUP1 SLOAD PUSH1 0x1 PUSH1 0x1 PUSH1 0xA0 SHL SUB DUP4 DUP2 AND PUSH1 0x1 PUSH1 0x1 PUSH1 0xA0 SHL SUB NOT DUP4 AND DUP2 OR SWAP1 SWAP4 SSTORE PUSH1 0x40 MLOAD SWAP2 AND SWAP2 SWAP1 DUP3 SWAP1 PUSH32 0x8BE0079C531659141344CD1FD0A4F28419497F9722A3DAAFE3B4186F6B6457E0 SWAP1 PUSH1 0x0 SWAP1 LOG3 POP POP JUMP JUMPDEST PUSH1 0x2 PUSH1 0x6 SLOAD SUB PUSH2 0x1022 JUMPI PUSH1 0x40 MLOAD PUSH4 0x3EE5AEB5 PUSH1 0xE0 SHL DUP2 MSTORE PUSH1 0x4 ADD PUSH1 0x40 MLOAD DUP1 SWAP2 SUB SWAP1 REVERT JUMPDEST PUSH1 0x2 PUSH1 0x6 SSTORE JUMP JUMPDEST PUSH1 0x1 PUSH1 0x1 PUSH1 0xA0 SHL SUB DUP4 AND PUSH2 0x1053 JUMPI PUSH1 0x40 MLOAD PUSH4 0x4B637E8F PUSH1 0xE1 SHL DUP2 MSTORE PUSH1 0x0 PUSH1 0x4 DUP3 ADD MSTORE PUSH1 0x24 ADD PUSH2 0x479 JUMP JUMPDEST PUSH1 0x1 PUSH1 0x1 PUSH1 0xA0 SHL SUB DUP3 AND PUSH2 0x107D JUMPI PUSH1 0x40 MLOAD PUSH4 0xEC442F05 PUSH1 0xE0 SHL DUP2 MSTORE PUSH1 0x0 PUSH1 0x4 DUP3 ADD MSTORE PUSH1 0x24 ADD PUSH2 0x479 JUMP JUMPDEST PUSH2 0xF21 DUP4 DUP4 DUP4 PUSH2 0x11E5 JUMP JUMPDEST PUSH1 0x0 CALLER PUSH2 0x411 DUP2 DUP6 DUP6 PUSH2 0x1029 JUMP JUMPDEST PUSH1 0x1 PUSH1 0x1 PUSH1 0xA0 SHL SUB DUP5 AND PUSH2 0x10C0 JUMPI PUSH1 0x40 MLOAD PUSH4 0xE602DF05 PUSH1 0xE0 SHL DUP2 MSTORE PUSH1 0x0 PUSH1 0x4 DUP3 ADD MSTORE PUSH1 0x24 ADD PUSH2 0x479 JUMP JUMPDEST PUSH1 0x1 PUSH1 0x1 PUSH1 0xA0 SHL SUB DUP4 AND PUSH2 0x10EA JUMPI PUSH1 0x40 MLOAD PUSH4 0x4A1406B1 PUSH1 0xE1 SHL DUP2 MSTORE PUSH1 0x0 PUSH1 0x4 DUP3 ADD MSTORE PUSH1 0x24 ADD PUSH2 0x479 JUMP JUMPDEST PUSH1 0x1 PUSH1 0x1 PUSH1 0xA0 SHL SUB DUP1 DUP6 AND PUSH1 0x0 SWAP1 DUP2 MSTORE PUSH1 0x1 PUSH1 0x20 SWAP1 DUP2 MSTORE PUSH1 0x40 DUP1 DUP4 KECCAK256 SWAP4 DUP8 AND DUP4 MSTORE SWAP3 SWAP1 MSTORE KECCAK256 DUP3 SWAP1 SSTORE DUP1 ISZERO PUSH2 0x1166 JUMPI DUP3 PUSH1 0x1 PUSH1 0x1 PUSH1 0xA0 SHL SUB AND DUP5 PUSH1 0x1 PUSH1 0x1 PUSH1 0xA0 SHL SUB AND PUSH32 0x8C5BE1E5EBEC7D5BD14F71427D1E84F3DD0314C0F7B2291E5B200AC8C7C3B925 DUP5 PUSH1 0x40 MLOAD PUSH2 0x115D SWAP2 DUP2 MSTORE PUSH1 0x20 ADD SWAP1 JUMP JUMPDEST PUSH1 0x40 MLOAD DUP1 SWAP2 SUB SWAP1 LOG3 JUMPDEST POP POP POP POP JUMP JUMPDEST PUSH1 0x1 PUSH1 0x1 PUSH1 0xA0 SHL SUB DUP4 DUP2 AND PUSH1 0x0 SWAP1 DUP2 MSTORE PUSH1 0x1 PUSH1 0x20 SWAP1 DUP2 MSTORE PUSH1 0x40 DUP1 DUP4 KECCAK256 SWAP4 DUP7 AND DUP4 MSTORE SWAP3 SWAP1 MSTORE KECCAK256 SLOAD PUSH1 0x0 NOT DUP2 LT ISZERO PUSH2 0x1166 JUMPI DUP2 DUP2 LT ISZERO PUSH2 0x11D6 JUMPI PUSH1 0x40 MLOAD PUSH4 0x7DC7A0D9 PUSH1 0xE1 SHL DUP2 MSTORE PUSH1 0x1 PUSH1 0x1 PUSH1 0xA0 SHL SUB DUP5 AND PUSH1 0x4 DUP3 ADD MSTORE PUSH1 0x24 DUP2 ADD DUP3 SWAP1 MSTORE PUSH1 0x44 DUP2 ADD DUP4 SWAP1 MSTORE PUSH1 0x64 ADD PUSH2 0x479 JUMP JUMPDEST PUSH2 0x1166 DUP5 DUP5 DUP5 DUP5 SUB PUSH1 0x0 PUSH2 0x1096 JUMP JUMPDEST PUSH1 0x1 PUSH1 0x1 PUSH1 0xA0 SHL SUB DUP4 AND PUSH2 0x1210 JUMPI DUP1 PUSH1 0x2 PUSH1 0x0 DUP3 DUP3 SLOAD PUSH2 0x1205 SWAP2 SWAP1 PUSH2 0x15F7 JUMP JUMPDEST SWAP1 SWAP2 SSTORE POP PUSH2 0x1282 SWAP1 POP JUMP JUMPDEST PUSH1 0x1 PUSH1 0x1 PUSH1 0xA0 SHL SUB DUP4 AND PUSH1 0x0 SWAP1 DUP2 MSTORE PUSH1 0x20 DUP2 SWAP1 MSTORE PUSH1 0x40 SWAP1 KECCAK256 SLOAD DUP2 DUP2 LT ISZERO PUSH2 0x1263 JUMPI PUSH1 0x40 MLOAD PUSH4 0x391434E3 PUSH1 0xE2 SHL DUP2 MSTORE PUSH1 0x1 PUSH1 0x1 PUSH1 0xA0 SHL SUB DUP6 AND PUSH1 0x4 DUP3 ADD MSTORE PUSH1 0x24 DUP2 ADD DUP3 SWAP1 MSTORE PUSH1 0x44 DUP2 ADD DUP4 SWAP1 MSTORE PUSH1 0x64 ADD PUSH2 0x479 JUMP JUMPDEST PUSH1 0x1 PUSH1 0x1 PUSH1 0xA0 SHL SUB DUP5 AND PUSH1 0x0 SWAP1 DUP2 MSTORE PUSH1 0x20 DUP2 SWAP1 MSTORE PUSH1 0x40 SWAP1 KECCAK256 SWAP1 DUP3 SWAP1 SUB SWAP1 SSTORE JUMPDEST PUSH1 0x1 PUSH1 0x1 PUSH1 0xA0 SHL SUB DUP3 AND PUSH2 0x129E JUMPI PUSH1 0x2 DUP1 SLOAD DUP3 SWAP1 SUB SWAP1 SSTORE PUSH2 0x12BD JUMP JUMPDEST PUSH1 0x1 PUSH1 0x1 PUSH1 0xA0 SHL SUB DUP3 AND PUSH1 0x0 SWAP1 DUP2 MSTORE PUSH1 0x20 DUP2 SWAP1 MSTORE PUSH1 0x40 SWAP1 KECCAK256 DUP1 SLOAD DUP3 ADD SWAP1 SSTORE JUMPDEST DUP2 PUSH1 0x1 PUSH1 0x1 PUSH1 0xA0 SHL SUB AND DUP4 PUSH1 0x1 PUSH1 0x1 PUSH1 0xA0 SHL SUB AND PUSH32 0xDDF252AD1BE2C89B69C2B068FC378DAA952BA7F163C4A11628F55A4DF523B3EF DUP4 PUSH1 0x40 MLOAD PUSH2 0x1302 SWAP2 DUP2 MSTORE PUSH1 0x20 ADD SWAP1 JUMP JUMPDEST PUSH1 0x40 MLOAD DUP1 SWAP2 SUB SWAP1 LOG3 POP POP POP JUMP JUMPDEST PUSH1 0x0 PUSH1 0x20 DUP1 DUP4 MSTORE DUP4 MLOAD DUP1 DUP3 DUP6 ADD MSTORE PUSH1 0x0 JUMPDEST DUP2 DUP2 LT ISZERO PUSH2 0x133C JUMPI DUP6 DUP2 ADD DUP4 ADD MLOAD DUP6 DUP3 ADD PUSH1 0x40 ADD MSTORE DUP3 ADD PUSH2 0x1320 JUMP JUMPDEST POP PUSH1 0x0 PUSH1 0x40 DUP3 DUP7 ADD ADD MSTORE PUSH1 0x40 PUSH1 0x1F NOT PUSH1 0x1F DUP4 ADD AND DUP6 ADD ADD SWAP3 POP POP POP SWAP3 SWAP2 POP POP JUMP JUMPDEST DUP1 CALLDATALOAD PUSH1 0x1 PUSH1 0x1 PUSH1 0xA0 SHL SUB DUP2 AND DUP2 EQ PUSH2 0x1374 JUMPI PUSH1 0x0 DUP1 REVERT JUMPDEST SWAP2 SWAP1 POP JUMP JUMPDEST PUSH1 0x0 DUP1 PUSH1 0x40 DUP4 DUP6 SUB SLT ISZERO PUSH2 0x138C JUMPI PUSH1 0x0 DUP1 REVERT JUMPDEST PUSH2 0x1395 DUP4 PUSH2 0x135D JUMP JUMPDEST SWAP5 PUSH1 0x20 SWAP4 SWAP1 SWAP4 ADD CALLDATALOAD SWAP4 POP POP POP JUMP JUMPDEST PUSH1 0x0 DUP1 PUSH1 0x0 PUSH1 0x60 DUP5 DUP7 SUB SLT ISZERO PUSH2 0x13B8 JUMPI PUSH1 0x0 DUP1 REVERT JUMPDEST PUSH2 0x13C1 DUP5 PUSH2 0x135D JUMP JUMPDEST SWAP3 POP PUSH2 0x13CF PUSH1 0x20 DUP6 ADD PUSH2 0x135D JUMP JUMPDEST SWAP2 POP PUSH1 0x40 DUP5 ADD CALLDATALOAD SWAP1 POP SWAP3 POP SWAP3 POP SWAP3 JUMP JUMPDEST PUSH1 0x0 PUSH1 0x20 DUP3 DUP5 SUB SLT ISZERO PUSH2 0x13F1 JUMPI PUSH1 0x0 DUP1 REVERT JUMPDEST PUSH2 0x13FA DUP3 PUSH2 0x135D JUMP JUMPDEST SWAP4 SWAP3 POP POP POP JUMP JUMPDEST PUSH1 0x0 DUP2 MLOAD DUP1 DUP5 MSTORE PUSH1 0x20 DUP1 DUP6 ADD SWAP5 POP DUP1 DUP5 ADD PUSH1 0x0 JUMPDEST DUP4 DUP2 LT ISZERO PUSH2 0x1431 JUMPI DUP2 MLOAD DUP8 MSTORE SWAP6 DUP3 ADD SWAP6 SWAP1 DUP3 ADD SWAP1 PUSH1 0x1 ADD PUSH2 0x1415 JUMP JUMPDEST POP SWAP5 SWAP6 SWAP5 POP POP POP POP POP JUMP JUMPDEST PUSH1 0x60 DUP2 MSTORE PUSH1 0x0 PUSH2 0x144F PUSH1 0x60 DUP4 ADD DUP7 PUSH2 0x1401 JUMP JUMPDEST DUP3 DUP2 SUB PUSH1 0x20 DUP5 ADD MSTORE PUSH2 0x1461 DUP2 DUP7 PUSH2 0x1401 JUMP JUMPDEST SWAP1 POP DUP3 DUP2 SUB PUSH1 0x40 DUP5 ADD MSTORE PUSH2 0x1475 DUP2 DUP6 PUSH2 0x1401 JUMP JUMPDEST SWAP7 SWAP6 POP POP POP POP POP POP JUMP JUMPDEST PUSH1 0x0 PUSH1 0x20 DUP3 DUP5 SUB SLT ISZERO PUSH2 0x1491 JUMPI PUSH1 0x0 DUP1 REVERT JUMPDEST POP CALLDATALOAD SWAP2 SWAP1 POP JUMP JUMPDEST PUSH1 0x0 DUP1 PUSH1 0x40 DUP4 DUP6 SUB SLT ISZERO PUSH2 0x14AB JUMPI PUSH1 0x0 DUP1 REVERT JUMPDEST POP POP DUP1 CALLDATALOAD SWAP3 PUSH1 0x20 SWAP1 SWAP2 ADD CALLDATALOAD SWAP2 POP JUMP JUMPDEST PUSH1 0x0 DUP1 PUSH1 0x40 DUP4 DUP6 SUB SLT ISZERO PUSH2 0x14CD JUMPI PUSH1 0x0 DUP1 REVERT JUMPDEST PUSH2 0x14D6 DUP4 PUSH2 0x135D JUMP JUMPDEST SWAP2 POP PUSH2 0x14E4 PUSH1 0x20 DUP5 ADD PUSH2 0x135D JUMP JUMPDEST SWAP1 POP SWAP3 POP SWAP3 SWAP1 POP JUMP JUMPDEST PUSH1 0x1 DUP2 DUP2 SHR SWAP1 DUP3 AND DUP1 PUSH2 0x1501 JUMPI PUSH1 0x7F DUP3 AND SWAP2 POP JUMPDEST PUSH1 0x20 DUP3 LT DUP2 SUB PUSH2 0x1521 JUMPI PUSH4 0x4E487B71 PUSH1 0xE0 SHL PUSH1 0x0 MSTORE PUSH1 0x22 PUSH1 0x4 MSTORE PUSH1 0x24 PUSH1 0x0 REVERT JUMPDEST POP SWAP2 SWAP1 POP JUMP JUMPDEST PUSH4 0x4E487B71 PUSH1 0xE0 SHL PUSH1 0x0 MSTORE PUSH1 0x32 PUSH1 0x4 MSTORE PUSH1 0x24 PUSH1 0x0 REVERT JUMPDEST PUSH1 0x20 DUP1 DUP3 MSTORE PUSH1 0x29 SWAP1 DUP3 ADD MSTORE PUSH32 0x5472616E7366657220616D6F756E74206578636565647320617661696C61626C PUSH1 0x40 DUP3 ADD MSTORE PUSH9 0x652062616C616E6365 PUSH1 0xB8 SHL PUSH1 0x60 DUP3 ADD MSTORE PUSH1 0x80 ADD SWAP1 JUMP JUMPDEST PUSH4 0x4E487B71 PUSH1 0xE0 SHL PUSH1 0x0 MSTORE PUSH1 0x11 PUSH1 0x4 MSTORE PUSH1 0x24 PUSH1 0x0 REVERT JUMPDEST PUSH1 0x0 PUSH1 0x1 DUP3 ADD PUSH2 0x15AE JUMPI PUSH2 0x15AE PUSH2 0x1586 JUMP JUMPDEST POP PUSH1 0x1 ADD SWAP1 JUMP JUMPDEST PUSH4 0x4E487B71 PUSH1 0xE0 SHL PUSH1 0x0 MSTORE PUSH1 0x41 PUSH1 0x4 MSTORE PUSH1 0x24 PUSH1 0x0 REVERT JUMPDEST PUSH1 0x0 PUSH1 0x20 DUP3 DUP5 SUB SLT ISZERO PUSH2 0x15DD JUMPI PUSH1 0x0 DUP1 REVERT JUMPDEST POP MLOAD SWAP2 SWAP1 POP JUMP JUMPDEST DUP2 DUP2 SUB DUP2 DUP2 GT ISZERO PUSH2 0x417 JUMPI PUSH2 0x417 PUSH2 0x1586 JUMP JUMPDEST DUP1 DUP3 ADD DUP1 DUP3 GT ISZERO PUSH2 0x417 JUMPI PUSH2 0x417 PUSH2 0x1586 JUMP INVALID LOG2 PUSH5 0x6970667358 0x22 SLT KECCAK256 PUSH3 0x1FEABB PUSH5 0x5E382E7813 PUSH8 0xCB152F7C1DA6F7C6 SWAP8 0xE6 0xC3 0xEB EXP 0xE5 DUP16 0x26 0xA8 DUP7 PUSH32 0x712564736F6C6343000814003300000000000000000000000000000000000000 "},"methodIdentifiers":{"allowance(address,address)":"dd62ed3e","approve(address,uint256)":"095ea7b3","balanceOf(address)":"70a08231","canUnlock(address,uint256)":"32c6534b","decimals()":"313ce567","getActiveLocks(address)":"61496d59","getAvailableBalance(address)":"6c24a76f","getLockCount(address)":"23c1ee43","getLockInfo(address,uint256)":"15b9672c","getTotalLockedTokens(address)":"e75e2c58","lockTokens(uint256,uint256)":"89158d8e","mint(address,uint256)":"40c10f19","name()":"06fdde03","owner()":"8da5cb5b","renounceOwnership()":"715018a6","symbol()":"95d89b41","tokenLocks(address,uint256)":"ccebfa3f","totalSupply()":"18160ddd","transfer(address,uint256)":"a9059cbb","transferFrom(address,address,uint256)":"23b872dd","transferOwnership(address)":"f2fde38b","unlockTokens(uint256)":"7c405325"}}}}}