{
  "_format": "hh-sol-artifact-1",
  "contractName": "LockableToken",
  "sourceName": "contracts/LockableToken.sol",
  "abi": [
    {
      "inputs": [
        {
          "internalType": "string",
          "name": "name",
          "type": "string"
        },
        {
          "internalType": "string",
          "name": "symbol",
          "type": "string"
        },
        {
          "internalType": "uint256",
          "name": "initialSupply",
          "type": "uint256"
        }
      ],
      "stateMutability": "nonpayable",
      "type": "constructor"
    },
    {
      "inputs": [
        {
          "internalType": "address",
          "name": "spender",
          "type": "address"
        },
        {
          "internalType": "uint256",
          "name": "allowance",
          "type": "uint256"
        },
        {
          "internalType": "uint256",
          "name": "needed",
          "type": "uint256"
        }
      ],
      "name": "ERC20InsufficientAllowance",
      "type": "error"
    },
    {
      "inputs": [
        {
          "internalType": "address",
          "name": "sender",
          "type": "address"
        },
        {
          "internalType": "uint256",
          "name": "balance",
          "type": "uint256"
        },
        {
          "internalType": "uint256",
          "name": "needed",
          "type": "uint256"
        }
      ],
      "name": "ERC20InsufficientBalance",
      "type": "error"
    },
    {
      "inputs": [
        {
          "internalType": "address",
          "name": "approver",
          "type": "address"
        }
      ],
      "name": "ERC20InvalidApprover",
      "type": "error"
    },
    {
      "inputs": [
        {
          "internalType": "address",
          "name": "receiver",
          "type": "address"
        }
      ],
      "name": "ERC20InvalidReceiver",
      "type": "error"
    },
    {
      "inputs": [
        {
          "internalType": "address",
          "name": "sender",
          "type": "address"
        }
      ],
      "name": "ERC20InvalidSender",
      "type": "error"
    },
    {
      "inputs": [
        {
          "internalType": "address",
          "name": "spender",
          "type": "address"
        }
      ],
      "name": "ERC20InvalidSpender",
      "type": "error"
    },
    {
      "inputs": [
        {
          "internalType": "address",
          "name": "owner",
          "type": "address"
        }
      ],
      "name": "OwnableInvalidOwner",
      "type": "error"
    },
    {
      "inputs": [
        {
          "internalType": "address",
          "name": "account",
          "type": "address"
        }
      ],
      "name": "OwnableUnauthorizedAccount",
      "type": "error"
    },
    {
      "inputs": [],
      "name": "ReentrancyGuardReentrantCall",
      "type": "error"
    },
    {
      "anonymous": false,
      "inputs": [
        {
          "indexed": true,
          "internalType": "address",
          "name": "owner",
          "type": "address"
        },
        {
          "indexed": true,
          "internalType": "address",
          "name": "spender",
          "type": "address"
        },
        {
          "indexed": false,
          "internalType": "uint256",
          "name": "value",
          "type": "uint256"
        }
      ],
      "name": "Approval",
      "type": "event"
    },
    {
      "anonymous": false,
      "inputs": [
        {
          "indexed": true,
          "internalType": "address",
          "name": "previousOwner",
          "type": "address"
        },
        {
          "indexed": true,
          "internalType": "address",
          "name": "newOwner",
          "type": "address"
        }
      ],
      "name": "OwnershipTransferred",
      "type": "event"
    },
    {
      "anonymous": false,
      "inputs": [
        {
          "indexed": true,
          "internalType": "address",
          "name": "user",
          "type": "address"
        },
        {
          "indexed": false,
          "internalType": "uint256",
          "name": "amount",
          "type": "uint256"
        },
        {
          "indexed": false,
          "internalType": "uint256",
          "name": "unlockTime",
          "type": "uint256"
        },
        {
          "indexed": false,
          "internalType": "uint256",
          "name": "lockIndex",
          "type": "uint256"
        }
      ],
      "name": "TokensLocked",
      "type": "event"
    },
    {
      "anonymous": false,
      "inputs": [
        {
          "indexed": true,
          "internalType": "address",
          "name": "user",
          "type": "address"
        },
        {
          "indexed": false,
          "internalType": "uint256",
          "name": "amount",
          "type": "uint256"
        },
        {
          "indexed": false,
          "internalType": "uint256",
          "name": "lockIndex",
          "type": "uint256"
        }
      ],
      "name": "TokensUnlocked",
      "type": "event"
    },
    {
      "anonymous": false,
      "inputs": [
        {
          "indexed": true,
          "internalType": "address",
          "name": "from",
          "type": "address"
        },
        {
          "indexed": true,
          "internalType": "address",
          "name": "to",
          "type": "address"
        },
        {
          "indexed": false,
          "internalType": "uint256",
          "name": "value",
          "type": "uint256"
        }
      ],
      "name": "Transfer",
      "type": "event"
    },
    {
      "inputs": [
        {
          "internalType": "address",
          "name": "owner",
          "type": "address"
        },
        {
          "internalType": "address",
          "name": "spender",
          "type": "address"
        }
      ],
      "name": "allowance",
      "outputs": [
        {
          "internalType": "uint256",
          "name": "",
          "type": "uint256"
        }
      ],
      "stateMutability": "view",
      "type": "function"
    },
    {
      "inputs": [
        {
          "internalType": "address",
          "name": "spender",
          "type": "address"
        },
        {
          "internalType": "uint256",
          "name": "value",
          "type": "uint256"
        }
      ],
      "name": "approve",
      "outputs": [
        {
          "internalType": "bool",
          "name": "",
          "type": "bool"
        }
      ],
      "stateMutability": "nonpayable",
      "type": "function"
    },
    {
      "inputs": [
        {
          "internalType": "address",
          "name": "account",
          "type": "address"
        }
      ],
      "name": "balanceOf",
      "outputs": [
        {
          "internalType": "uint256",
          "name": "",
          "type": "uint256"
        }
      ],
      "stateMutability": "view",
      "type": "function"
    },
    {
      "inputs": [
        {
          "internalType": "address",
          "name": "user",
          "type": "address"
        },
        {
          "internalType": "uint256",
          "name": "lockIndex",
          "type": "uint256"
        }
      ],
      "name": "canUnlock",
      "outputs": [
        {
          "internalType": "bool",
          "name": "",
          "type": "bool"
        }
      ],
      "stateMutability": "view",
      "type": "function"
    },
    {
      "inputs": [],
      "name": "decimals",
      "outputs": [
        {
          "internalType": "uint8",
          "name": "",
          "type": "uint8"
        }
      ],
      "stateMutability": "view",
      "type": "function"
    },
    {
      "inputs": [
        {
          "internalType": "address",
          "name": "user",
          "type": "address"
        }
      ],
      "name": "getActiveLocks",
      "outputs": [
        {
          "internalType": "uint256[]",
          "name": "amounts",
          "type": "uint256[]"
        },
        {
          "internalType": "uint256[]",
          "name": "unlockTimes",
          "type": "uint256[]"
        },
        {
          "internalType": "uint256[]",
          "name": "indexes",
          "type": "uint256[]"
        }
      ],
      "stateMutability": "view",
      "type": "function"
    },
    {
      "inputs": [
        {
          "internalType": "address",
          "name": "user",
          "type": "address"
        }
      ],
      "name": "getAvailableBalance",
      "outputs": [
        {
          "internalType": "uint256",
          "name": "",
          "type": "uint256"
        }
      ],
      "stateMutability": "view",
      "type": "function"
    },
    {
      "inputs": [
        {
          "internalType": "address",
          "name": "user",
          "type": "address"
        }
      ],
      "name": "getLockCount",
      "outputs": [
        {
          "internalType": "uint256",
          "name": "",
          "type": "uint256"
        }
      ],
      "stateMutability": "view",
      "type": "function"
    },
    {
      "inputs": [
        {
          "internalType": "address",
          "name": "user",
          "type": "address"
        },
        {
          "internalType": "uint256",
          "name": "lockIndex",
          "type": "uint256"
        }
      ],
      "name": "getLockInfo",
      "outputs": [
        {
          "internalType": "uint256",
          "name": "amount",
          "type": "uint256"
        },
        {
          "internalType": "uint256",
          "name": "unlockTime",
          "type": "uint256"
        },
        {
          "internalType": "bool",
          "name": "exists",
          "type": "bool"
        }
      ],
      "stateMutability": "view",
      "type": "function"
    },
    {
      "inputs": [
        {
          "internalType": "address",
          "name": "user",
          "type": "address"
        }
      ],
      "name": "getTotalLockedTokens",
      "outputs": [
        {
          "internalType": "uint256",
          "name": "",
          "type": "uint256"
        }
      ],
      "stateMutability": "view",
      "type": "function"
    },
    {
      "inputs": [
        {
          "internalType": "uint256",
          "name": "amount",
          "type": "uint256"
        },
        {
          "internalType": "uint256",
          "name": "lockDuration",
          "type": "uint256"
        }
      ],
      "name": "lockTokens",
      "outputs": [],
      "stateMutability": "nonpayable",
      "type": "function"
    },
    {
      "inputs": [
        {
          "internalType": "address",
          "name": "to",
          "type": "address"
        },
        {
          "internalType": "uint256",
          "name": "amount",
          "type": "uint256"
        }
      ],
      "name": "mint",
      "outputs": [],
      "stateMutability": "nonpayable",
      "type": "function"
    },
    {
      "inputs": [],
      "name": "name",
      "outputs": [
        {
          "internalType": "string",
          "name": "",
          "type": "string"
        }
      ],
      "stateMutability": "view",
      "type": "function"
    },
    {
      "inputs": [],
      "name": "owner",
      "outputs": [
        {
          "internalType": "address",
          "name": "",
          "type": "address"
        }
      ],
      "stateMutability": "view",
      "type": "function"
    },
    {
      "inputs": [],
      "name": "renounceOwnership",
      "outputs": [],
      "stateMutability": "nonpayable",
      "type": "function"
    },
    {
      "inputs": [],
      "name": "symbol",
      "outputs": [
        {
          "internalType": "string",
          "name": "",
          "type": "string"
        }
      ],
      "stateMutability": "view",
      "type": "function"
    },
    {
      "inputs": [
        {
          "internalType": "address",
          "name": "",
          "type": "address"
        },
        {
          "internalType": "uint256",
          "name": "",
          "type": "uint256"
        }
      ],
      "name": "tokenLocks",
      "outputs": [
        {
          "internalType": "uint256",
          "name": "amount",
          "type": "uint256"
        },
        {
          "internalType": "uint256",
          "name": "unlockTime",
          "type": "uint256"
        },
        {
          "internalType": "bool",
          "name": "exists",
          "type": "bool"
        }
      ],
      "stateMutability": "view",
      "type": "function"
    },
    {
      "inputs": [],
      "name": "totalSupply",
      "outputs": [
        {
          "internalType": "uint256",
          "name": "",
          "type": "uint256"
        }
      ],
      "stateMutability": "view",
      "type": "function"
    },
    {
      "inputs": [
        {
          "internalType": "address",
          "name": "to",
          "type": "address"
        },
        {
          "internalType": "uint256",
          "name": "amount",
          "type": "uint256"
        }
      ],
      "name": "transfer",
      "outputs": [
        {
          "internalType": "bool",
          "name": "",
          "type": "bool"
        }
      ],
      "stateMutability": "nonpayable",
      "type": "function"
    },
    {
      "inputs": [
        {
          "internalType": "address",
          "name": "from",
          "type": "address"
        },
        {
          "internalType": "address",
          "name": "to",
          "type": "address"
        },
        {
          "internalType": "uint256",
          "name": "amount",
          "type": "uint256"
        }
      ],
      "name": "transferFrom",
      "outputs": [
        {
          "internalType": "bool",
          "name": "",
          "type": "bool"
        }
      ],
      "stateMutability": "nonpayable",
      "type": "function"
    },
    {
      "inputs": [
        {
          "internalType": "address",
          "name": "newOwner",
          "type": "address"
        }
      ],
      "name": "transferOwnership",
      "outputs": [],
      "stateMutability": "nonpayable",
      "type": "function"
    },
    {
      "inputs": [
        {
          "internalType": "uint256",
          "name": "lockIndex",
          "type": "uint256"
        }
      ],
      "name": "unlockTokens",
      "outputs": [],
      "stateMutability": "nonpayable",
      "type": "function"
    }
  ],
  "bytecode": "0x60806040523480156200001157600080fd5b5060405162001cc938038062001cc983398101604081905262000034916200034e565b338383600362000045838262000450565b50600462000054828262000450565b5050506001600160a01b0381166200008757604051631e4fbdf760e01b8152600060048201526024015b60405180910390fd5b6200009281620000c6565b506001600655620000bd33620000ab6012600a62000631565b620000b7908462000649565b62000118565b50505062000679565b600580546001600160a01b038381166001600160a01b0319831681179093556040519116919082907f8be0079c531659141344cd1fd0a4f28419497f9722a3daafe3b4186f6b6457e090600090a35050565b6001600160a01b038216620001445760405163ec442f0560e01b8152600060048201526024016200007e565b620001526000838362000156565b5050565b6001600160a01b0383166200018557806002600082825462000179919062000663565b90915550620001f99050565b6001600160a01b03831660009081526020819052604090205481811015620001da5760405163391434e360e21b81526001600160a01b038516600482015260248101829052604481018390526064016200007e565b6001600160a01b03841660009081526020819052604090209082900390555b6001600160a01b038216620002175760028054829003905562000236565b6001600160a01b03821660009081526020819052604090208054820190555b816001600160a01b0316836001600160a01b03167fddf252ad1be2c89b69c2b068fc378daa952ba7f163c4a11628f55a4df523b3ef836040516200027c91815260200190565b60405180910390a3505050565b634e487b7160e01b600052604160045260246000fd5b600082601f830112620002b157600080fd5b81516001600160401b0380821115620002ce57620002ce62000289565b604051601f8301601f19908116603f01168101908282118183101715620002f957620002f962000289565b816040528381526020925086838588010111156200031657600080fd5b600091505b838210156200033a57858201830151818301840152908201906200031b565b600093810190920192909252949350505050565b6000806000606084860312156200036457600080fd5b83516001600160401b03808211156200037c57600080fd5b6200038a878388016200029f565b94506020860151915080821115620003a157600080fd5b50620003b0868287016200029f565b925050604084015190509250925092565b600181811c90821680620003d657607f821691505b602082108103620003f757634e487b7160e01b600052602260045260246000fd5b50919050565b601f8211156200044b57600081815260208120601f850160051c81016020861015620004265750805b601f850160051c820191505b81811015620004475782815560010162000432565b5050505b505050565b81516001600160401b038111156200046c576200046c62000289565b62000484816200047d8454620003c1565b84620003fd565b602080601f831160018114620004bc5760008415620004a35750858301515b600019600386901b1c1916600185901b17855562000447565b600085815260208120601f198616915b82811015620004ed57888601518255948401946001909101908401620004cc565b50858210156200050c5787850151600019600388901b60f8161c191681555b5050505050600190811b01905550565b634e487b7160e01b600052601160045260246000fd5b600181815b80851115620005735781600019048211156200055757620005576200051c565b808516156200056557918102915b93841c939080029062000537565b509250929050565b6000826200058c575060016200062b565b816200059b575060006200062b565b8160018114620005b45760028114620005bf57620005df565b60019150506200062b565b60ff841115620005d357620005d36200051c565b50506001821b6200062b565b5060208310610133831016604e8410600b841016171562000604575081810a6200062b565b62000610838362000532565b80600019048211156200062757620006276200051c565b0290505b92915050565b60006200064260ff8416836200057b565b9392505050565b80820281158282048414176200062b576200062b6200051c565b808201808211156200062b576200062b6200051c565b61164080620006896000396000f3fe608060405234801561001057600080fd5b50600436106101425760003560e01c806370a08231116100b857806395d89b411161007c57806395d89b41146102e4578063a9059cbb146102ec578063ccebfa3f146102ff578063dd62ed3e14610312578063e75e2c581461034b578063f2fde38b1461035e57600080fd5b806370a0823114610272578063715018a61461029b5780637c405325146102a357806389158d8e146102b65780638da5cb5b146102c957600080fd5b806323c1ee431161010a57806323c1ee43146101dd578063313ce5671461020657806332c6534b1461021557806340c10f191461022857806361496d591461023d5780636c24a76f1461025f57600080fd5b806306fdde0314610147578063095ea7b31461016557806315b9672c1461018857806318160ddd146101b857806323b872dd146101ca575b600080fd5b61014f610371565b60405161015c919061130f565b60405180910390f35b610178610173366004611379565b610403565b604051901515815260200161015c565b61019b610196366004611379565b61041d565b60408051938452602084019290925215159082015260600161015c565b6002545b60405190815260200161015c565b6101786101d83660046113a3565b6104da565b6101bc6101eb3660046113df565b6001600160a01b031660009081526007602052604090205490565b6040516012815260200161015c565b610178610223366004611379565b61051c565b61023b610236366004611379565b6105ac565b005b61025061024b3660046113df565b6105c2565b60405161015c9392919061143c565b6101bc61026d3660046113df565b610907565b6101bc6102803660046113df565b6001600160a01b031660009081526020819052604090205490565b61023b6109ad565b61023b6102b136600461147f565b6109c1565b61023b6102c4366004611498565b610b99565b6005546040516001600160a01b03909116815260200161015c565b61014f610d7d565b6101786102fa366004611379565b610d8c565b61019b61030d366004611379565b610dc4565b6101bc6103203660046114ba565b6001600160a01b03918216600090815260016020908152604080832093909416825291909152205490565b6101bc6103593660046113df565b610e09565b61023b61036c3660046113df565b610ed9565b606060038054610380906114ed565b80601f01602080910402602001604051908101604052809291908181526020018280546103ac906114ed565b80156103f95780601f106103ce576101008083540402835291602001916103f9565b820191906000526020600020905b8154815290600101906020018083116103dc57829003601f168201915b5050505050905090565b600033610411818585610f14565b60019150505b92915050565b6001600160a01b0382166000908152600760205260408120548190819084106104825760405162461bcd60e51b8152602060048201526012602482015271092dcecc2d8d2c840d8dec6d640d2dcc8caf60731b60448201526064015b60405180910390fd5b6001600160a01b03851660009081526007602052604081208054869081106104ac576104ac611527565b6000918252602090912060039091020180546001820154600290920154909891975060ff1695509350505050565b6000806104e685610907565b9050808311156105085760405162461bcd60e51b81526004016104799061153d565b610513858585610f26565b95945050505050565b6001600160a01b038216600090815260076020526040812054821061054357506000610417565b6001600160a01b038316600090815260076020526040812080548490811061056d5761056d611527565b60009182526020909120600390910201600281015490915060ff1680156105945750805415155b80156105a4575080600101544210155b949350505050565b6105b4610f4a565b6105be8282610f77565b5050565b6001600160a01b03811660009081526007602052604081205460609182918291805b82811015610697576001600160a01b038716600090815260076020526040902080548290811061061657610616611527565b600091825260209091206002600390920201015460ff16801561067257506001600160a01b038716600090815260076020526040812080548390811061065e5761065e611527565b906000526020600020906003020160000154115b1561068557816106818161159c565b9250505b8061068f8161159c565b9150506105e4565b508067ffffffffffffffff8111156106b1576106b16115b5565b6040519080825280602002602001820160405280156106da578160200160208202803683370190505b5094508067ffffffffffffffff8111156106f6576106f66115b5565b60405190808252806020026020018201604052801561071f578160200160208202803683370190505b5093508067ffffffffffffffff81111561073b5761073b6115b5565b604051908082528060200260200182016040528015610764578160200160208202803683370190505b5092506000805b838110156108fc576001600160a01b038816600090815260076020526040902080548290811061079d5761079d611527565b600091825260209091206002600390920201015460ff1680156107f957506001600160a01b03881660009081526007602052604081208054839081106107e5576107e5611527565b906000526020600020906003020160000154115b156108ea576001600160a01b038816600090815260076020526040902080548290811061082857610828611527565b90600052602060002090600302016000015487838151811061084c5761084c611527565b60200260200101818152505060076000896001600160a01b03166001600160a01b03168152602001908152602001600020818154811061088e5761088e611527565b9060005260206000209060030201600101548683815181106108b2576108b2611527565b602002602001018181525050808583815181106108d1576108d1611527565b6020908102919091010152816108e68161159c565b9250505b806108f48161159c565b91505061076b565b505050509193909250565b6001600160a01b0381166000908152602081905260408120548190604051631cebc58b60e31b81526001600160a01b0385166004820152909150600090309063e75e2c5890602401602060405180830381865afa15801561096c573d6000803e3d6000fd5b505050506040513d601f19601f8201168201806040525081019061099091906115cb565b90508181106109a3575060009392505050565b6105a481836115e4565b6109b5610f4a565b6109bf6000610fad565b565b6109c9610fff565b336000908152600760205260409020548110610a1c5760405162461bcd60e51b8152602060048201526012602482015271092dcecc2d8d2c840d8dec6d640d2dcc8caf60731b6044820152606401610479565b336000908152600760205260408120805483908110610a3d57610a3d611527565b60009182526020909120600390910201600281015490915060ff16610a9a5760405162461bcd60e51b8152602060048201526013602482015272131bd8dac8191bd95cc81b9bdd08195e1a5cdd606a1b6044820152606401610479565b8060010154421015610aee5760405162461bcd60e51b815260206004820152601760248201527f546f6b656e7320617265207374696c6c206c6f636b65640000000000000000006044820152606401610479565b8054610b325760405162461bcd60e51b81526020600482015260136024820152724e6f20746f6b656e7320746f20756e6c6f636b60681b6044820152606401610479565b80546000825560028201805460ff19169055610b4f303383611029565b604080518281526020810185905233917f89882ad382a3742d4db24e4dabc5000c5852aed762904db28442e4e1630a1d07910160405180910390a25050610b966001600655565b50565b610ba1610fff565b60008211610bf15760405162461bcd60e51b815260206004820152601d60248201527f416d6f756e74206d7573742062652067726561746572207468616e20300000006044820152606401610479565b60008111610c4d5760405162461bcd60e51b8152602060048201526024808201527f4c6f636b206475726174696f6e206d75737420626520677265617465722074686044820152630616e20360e41b6064820152608401610479565b33600090815260208190526040902054821115610ca35760405162461bcd60e51b8152602060048201526014602482015273496e73756666696369656e742062616c616e636560601b6044820152606401610479565b6000610caf82426115f7565b9050610cbc333085611029565b60408051606081018252848152602080820184815260018385018181523360008181526007865296872080548085018255818952958820875160039097020195865593518584015590516002909401805460ff1916941515949094179093559382905254919290917f90e20a62e0f2a608d33bd96a4e15cb853006a15caf4455f373b7b55de520b68c9187918691610d53916115e4565b6040805193845260208401929092529082015260600160405180910390a250506105be6001600655565b606060048054610380906114ed565b600080610d9833610907565b905080831115610dba5760405162461bcd60e51b81526004016104799061153d565b6105a48484611088565b60076020528160005260406000208181548110610de057600080fd5b600091825260209091206003909102018054600182015460029092015490935090915060ff1683565b6001600160a01b0381166000908152600760205260408120548190815b81811015610ed0576001600160a01b0385166000908152600760205260409020805482908110610e5857610e58611527565b600091825260209091206002600390920201015460ff1615610ebe576001600160a01b0385166000908152600760205260409020805482908110610e9e57610e9e611527565b90600052602060002090600302016000015483610ebb91906115f7565b92505b80610ec88161159c565b915050610e26565b50909392505050565b610ee1610f4a565b6001600160a01b038116610f0b57604051631e4fbdf760e01b815260006004820152602401610479565b610b9681610fad565b610f218383836001611096565b505050565b600033610f3485828561116c565b610f3f858585611029565b506001949350505050565b6005546001600160a01b031633146109bf5760405163118cdaa760e01b8152336004820152602401610479565b6001600160a01b038216610fa15760405163ec442f0560e01b815260006004820152602401610479565b6105be600083836111e5565b600580546001600160a01b038381166001600160a01b0319831681179093556040519116919082907f8be0079c531659141344cd1fd0a4f28419497f9722a3daafe3b4186f6b6457e090600090a35050565b60026006540361102257604051633ee5aeb560e01b815260040160405180910390fd5b6002600655565b6001600160a01b03831661105357604051634b637e8f60e11b815260006004820152602401610479565b6001600160a01b03821661107d5760405163ec442f0560e01b815260006004820152602401610479565b610f218383836111e5565b600033610411818585611029565b6001600160a01b0384166110c05760405163e602df0560e01b815260006004820152602401610479565b6001600160a01b0383166110ea57604051634a1406b160e11b815260006004820152602401610479565b6001600160a01b038085166000908152600160209081526040808320938716835292905220829055801561116657826001600160a01b0316846001600160a01b03167f8c5be1e5ebec7d5bd14f71427d1e84f3dd0314c0f7b2291e5b200ac8c7c3b9258460405161115d91815260200190565b60405180910390a35b50505050565b6001600160a01b0383811660009081526001602090815260408083209386168352929052205460001981101561116657818110156111d657604051637dc7a0d960e11b81526001600160a01b03841660048201526024810182905260448101839052606401610479565b61116684848484036000611096565b6001600160a01b03831661121057806002600082825461120591906115f7565b909155506112829050565b6001600160a01b038316600090815260208190526040902054818110156112635760405163391434e360e21b81526001600160a01b03851660048201526024810182905260448101839052606401610479565b6001600160a01b03841660009081526020819052604090209082900390555b6001600160a01b03821661129e576002805482900390556112bd565b6001600160a01b03821660009081526020819052604090208054820190555b816001600160a01b0316836001600160a01b03167fddf252ad1be2c89b69c2b068fc378daa952ba7f163c4a11628f55a4df523b3ef8360405161130291815260200190565b60405180910390a3505050565b600060208083528351808285015260005b8181101561133c57858101830151858201604001528201611320565b506000604082860101526040601f19601f8301168501019250505092915050565b80356001600160a01b038116811461137457600080fd5b919050565b6000806040838503121561138c57600080fd5b6113958361135d565b946020939093013593505050565b6000806000606084860312156113b857600080fd5b6113c18461135d565b92506113cf6020850161135d565b9150604084013590509250925092565b6000602082840312156113f157600080fd5b6113fa8261135d565b9392505050565b600081518084526020808501945080840160005b8381101561143157815187529582019590820190600101611415565b509495945050505050565b60608152600061144f6060830186611401565b82810360208401526114618186611401565b905082810360408401526114758185611401565b9695505050505050565b60006020828403121561149157600080fd5b5035919050565b600080604083850312156114ab57600080fd5b50508035926020909101359150565b600080604083850312156114cd57600080fd5b6114d68361135d565b91506114e46020840161135d565b90509250929050565b600181811c9082168061150157607f821691505b60208210810361152157634e487b7160e01b600052602260045260246000fd5b50919050565b634e487b7160e01b600052603260045260246000fd5b60208082526029908201527f5472616e7366657220616d6f756e74206578636565647320617661696c61626c604082015268652062616c616e636560b81b606082015260800190565b634e487b7160e01b600052601160045260246000fd5b6000600182016115ae576115ae611586565b5060010190565b634e487b7160e01b600052604160045260246000fd5b6000602082840312156115dd57600080fd5b5051919050565b8181038181111561041757610417611586565b808201808211156104175761041761158656fea2646970667358221220621feabb645e382e781367cb152f7c1da6f7c697e6c3eb0ae58f26a8867f712564736f6c63430008140033",
  "linkReferences": {},
  "deployedLinkReferences": {}
}